:100000000C944A000C9469000C9469000C946900EB
:100010000C9469000C9469000C9469000C946900BC
:100020000C9469000C9469000C9469000C946900AC
:100030000C94F3100C9469000C9469000C94690002
:100040000C9469000C9469000C9485040C9469006C
:100050000C9469000C9459140C9469000C94C91305
:100060000C9469000C9469000C9469000C9469006C
:100070000C9469000C9469000C9469000C9469005C
:100080000C94AE150C9469000C946C150C946900DA
:100090000C94690011241FBECFEFD0E1DEBFCDBFAD
:1000A00011E0A0E0B1E0EAEFF6E300E00BBF02C030
:1000B00007900D92AE33B107D9F722E0AEE3B1E07D
:1000C00001C01D92A239B207E1F70E946B170C9490
:1000D0007B1B0C9400000F931F93CF93DF9300D0F2
:1000E000CDB7DEB79A8389838DE290E02DE230E0D0
:1000F000F90120812863FC01208384E290E024E25E
:1001000030E0F90120812068FC01208384E990E03F
:10011000FC011182108286E490E0FC01108288E9E3
:1001200090E0FC01118210828AE990E0FC011182CA
:1001300010828CE990E0FC011182108280E990E04D
:100140002EEBFC01208381E990E02AE1FC01208371
:1001500084E490E02BE6FC01208306E910E089812D
:100160009A81CC01A0E0B0E0BC01CD010E9407194A
:10017000DC01CB0120E030E040E051E4BC01CD01E6
:100180000E94BE19DC01CB019C01AD0160E074E26C
:1001900084E799E40E946618DC01CB0120E030E09E
:1001A00040E05FE3BC01CD010E94F517DC01CB010B
:1001B000BC01CD010E94D818DC01CB01F80191836C
:1001C00080830F900F90DF91CF911F910F91089531
:1001D000CF92DF92EF92FF92CF93DF9300D000D0C7
:1001E000CDB7DEB79C838B8386E990E0FC018081EC
:1001F0009181CC01A0E0B0E0BC01CD010E940719C3
:10020000DC01CB0120E030E04FE753E4BC01CD013D
:100210000E946618DC01CB016C017D018B819C8101
:10022000092E000CAA0BBB0BBC01CD010E940919C1
:10023000DC01CB019C01AD01C701B6010E94BE19D2
:10024000DC01CB0120E030E040E05FE3BC01CD0108
:100250000E94F517DC01CB01BC01CD010E94D8182A
:10026000DC01CB019A83898389E990E029813A8175
:10027000232F3327FC01208388E990E02981FC01AA
:1002800020830F900F900F900F90DF91CF91FF90F0
:10029000EF90DF90CF900895CF92DF92EF92FF9290
:1002A000CF93DF9300D000D0CDB7DEB79C838B8394
:1002B00086E990E0FC0180819181CC01A0E0B0E072
:1002C000BC01CD010E940719DC01CB0120E030E028
:1002D0004FE753E4BC01CD010E946618DC01CB015D
:1002E0006C017D018B819C81092E000CAA0BBB0B3C
:1002F000BC01CD010E940919DC01CB019C01AD01BB
:10030000C701B6010E94BE19DC01CB0120E030E03C
:1003100040E05FE3BC01CD010E94F517DC01CB0199
:10032000BC01CD010E94D818DC01CB019A838983DE
:100330008BE990E029813A81232F3327FC01208328
:100340008AE990E02981FC0120830F900F900F90A3
:100350000F90DF91CF91FF90EF90DF90CF900895B5
:10036000CF92DF92EF92FF92CF93DF9300D000D035
:10037000CDB7DEB79C838B8386E990E0FC0180815A
:100380009181CC01A0E0B0E0BC01CD010E94071931
:10039000DC01CB0120E030E04FE753E4BC01CD01AC
:1003A0000E946618DC01CB016C017D018B819C8170
:1003B000092E000CAA0BBB0BBC01CD010E94091930
:1003C000DC01CB019C01AD01C701B6010E94BE1941
:1003D000DC01CB0120E030E040E05FE3BC01CD0177
:1003E0000E94F517DC01CB01BC01CD010E94D81899
:1003F000DC01CB019A8389838DE990E029813A81E0
:10040000232F3327FC0120838CE990E02981FC0114
:1004100020830F900F900F900F90DF91CF91FF905E
:10042000EF90DF90CF900895CF93DF93CDB7DEB7F5
:10043000DF91CF910895CF93DF93CDB7DEB7689763
:100440000FB6F894DEBF0FBECDBF8F8B688F81E4EF
:100450008F878F89888B888D898B72C080E090E030
:10046000A8E4B2E489839A83AB83BC8320E030E0C4
:100470004AE753E469817A818B819C810E94BE198D
:10048000DC01CB018D839E83AF83B88720E030E011
:1004900040E85FE36D817E818F8198850E946118BD
:1004A00088232CF481E090E09A8789873FC020E080
:1004B0003FEF4FE757E46D817E818F8198850E94E1
:1004C000B91918164CF520E030E040E251E469819A
:1004D0007A818B819C810E94BE19DC01CB01BC0119
:1004E000CD010E94D818DC01CB019A8789870FC003
:1004F00089E190E09C878B878B859C850197F1F73C
:100500009C878B8789859A8501979A8789878985B2
:100510009A85892B69F714C06D817E818F819885BA
:100520000E94D818DC01CB019A87898789859A8532
:100530009E878D878D859E850197F1F79E878D8794
:10054000CE010F9664ED0E943307882309F086CF11
:1005500068960FB6F894DEBF0FBECDBFDF91CF9186
:100560000895CF93DF93CDB7DEB768970FB6F894B1
:10057000DEBF0FBECDBF8F8B688F82E48F878F89E0
:10058000888B888D898B72C080E090E0A8E4B2E40B
:1005900089839A83AB83BC8320E030E04AE753E44D
:1005A00069817A818B819C810E94BE19DC01CB011B
:1005B0008D839E83AF83B88720E030E040E85FE31F
:1005C0006D817E818F8198850E94611888232CF42B
:1005D00081E090E09A8789873FC020E03FEF4FE7B6
:1005E00057E46D817E818F8198850E94B919181614
:1005F0004CF520E030E040E251E469817A818B8162
:100600009C810E94BE19DC01CB01BC01CD010E947E
:10061000D818DC01CB019A8789870FC089E190E067
:100620009C878B878B859C850197F1F79C878B87AF
:1006300089859A8501979A87898789859A85892BE3
:1006400069F714C06D817E818F8198850E94D818CA
:10065000DC01CB019A87898789859A859E878D875A
:100660008D859E850197F1F79E878D87CE010F9628
:1006700064ED0E943307882309F086CF68960FB691
:10068000F894DEBF0FBECDBFDF91CF910895CF9319
:10069000DF93CDB7DEB768970FB6F894DEBF0FBE15
:1006A000CDBF8F8B688F83E48F878F89888B888DF0
:1006B000898B72C080E090E0A8E4B2E489839A83D9
:1006C000AB83BC8320E030E04AE753E469817A8160
:1006D0008B819C810E94BE19DC01CB018D839E839E
:1006E000AF83B88720E030E040E85FE36D817E8132
:1006F0008F8198850E94611888232CF481E090E016
:100700009A8789873FC020E03FEF4FE757E46D812C
:100710007E818F8198850E94B91918164CF520E0CA
:1007200030E040E251E469817A818B819C810E94B2
:10073000BE19DC01CB01BC01CD010E94D818DC013F
:10074000CB019A8789870FC089E190E09C878B87CE
:100750008B859C850197F1F79C878B8789859A8586
:1007600001979A87898789859A85892B69F714C0AB
:100770006D817E818F8198850E94D818DC01CB0124
:100780009A87898789859A859E878D878D859E859D
:100790000197F1F79E878D87CE010F9664ED0E9439
:1007A0003307882309F086CF68960FB6F894DEBF2A
:1007B0000FBECDBFDF91CF910895CF93DF93CDB71B
:1007C000DEB72B970FB6F894DEBF0FBECDBF1982F0
:1007D0001A8281E08B831E821D8218861F821A86F0
:1007E0001986CE0105960E94310E8B81082E000CD1
:1007F000990B8130910521F0029709F443C084C020
:100800008A8189833CC040E050E08981282F30E014
:100810006BE0629FC001639F900D1124875E9E4F25
:10082000DC018C91E82F8981282F30E06BE0629FFA
:10083000C001639F900D1124885E9E4FDC017C9166
:100840008981282F30E06BE0629FC001639F900D8B
:1008500011248F5E9E4F9A014E2F672F0E94750DB7
:100860008C838C81813009F40DC08981813021F421
:1008700083E50E942D0CFFCF89818F5F8983898159
:10088000882309F28A8189833CC040E050E0898155
:10089000282F30E06BE0629FC001639F900D112410
:1008A0008C5D9E4FFC018081E82F8981282F30E0EC
:1008B0006BE0629FC001639F900D11248D5D9E4F80
:1008C000DC017C918981282F30E06BE0629FC001C0
:1008D000639F900D1124845E9E4F9A014E2F672FC7
:1008E0000E94750D8C838C81813009F40DC0898143
:1008F000813021F483E50E942D0CFFCF89818F5F29
:1009000089838981882309F270CF1F920F9200900A
:100910005F000F92112400905B000F922F933F9382
:100920004F935F938F939F93EF93FF93CF93DF93B7
:1009300000D000D0CDB7DEB78DEE90E0FC01808115
:100940008B831982A4C08DEE90E029812295207FAF
:10095000FC0120838EEE90E0FC01808182958695DB
:100960008770882F90E081709927892B09F470C0D7
:100970008FEE90E020E8FC0120838EEE90E02EEEDA
:1009800030E0F90120812F7DFC01208382EF90E08F
:10099000FC018081829586958770282F83EF90E0F7
:1009A000FC018081882F90E0880F991F880F991F84
:1009B000880F991F822B8C831A8226C08C81882FE6
:1009C00090E081509048880F991F825C9E4FFC01F7
:1009D000208131818C81882F90E001978E5A9E4F23
:1009E000FC018081482F50E08A81882F90E0840F9D
:1009F000951F820F931F2AEF30E0F9012081FC013F
:100A000020838A818F5F8A838A818830B8F28C81C3
:100A1000882F90E001978E5A9E4FFC0120812F5F16
:100A2000FC012083253041F48C81882F90E00197D0
:100A30008E5A9E4FFC0110828C81882F90E0019786
:100A40008A599E4FFC0120812F5FFC01208323C027
:100A50008EEE90E0FC01808182958695869583706C
:100A6000882F90E081709927892B71F08FEE90E0AC
:100A7000FC0110828EEE90E02EEE30E0F901208134
:100A80002F7BFC01208307C089818F5F8983898147
:100A90008F3008F458CF8DEE90E02B81FC0120833D
:100AA0000F900F900F900F90DF91CF91FF91EF91EA
:100AB0009F918F915F914F913F912F910F90009255
:100AC0005B000F9000925F000F901F901895CF93DE
:100AD000DF9300D0CDB7DEB788ED90E021E0FC01D8
:100AE000208319823EC08DEE90E029812295207FDF
:100AF000FC0120838EEE90E0FC0110828FEE90E0EE
:100B0000FC01108283EF90E0FC01108282EF90E004
:100B1000FC01108281EF90E0FC01108280EF90E0F8
:100B2000FC01108287EF90E0FC01108286EF90E0DC
:100B3000FC01108285EF90E0FC01108284EF90E0D0
:100B4000FC0110821A8207C08AEF90E0FC0110823B
:100B50008A818F5F8A838A818830B0F389818F5F31
:100B6000898389818F3008F4BECF88ED90E022E040
:100B7000FC01208382EE90E021E0FC01208383EEE3
:100B800090E028E0FC01208384EE90E02EE5FC015B
:100B9000208385EE90E0FC0110828BED90E020EB4D
:100BA000FC0120838FED90E02FE7FC0120838EED88
:100BB00090E02FEFFC01208378940F900F90DF914D
:100BC000CF910895CF93DF9300D000D0CDB7DEB79B
:100BD0009C838B838DEE90E0FC0180818A830000F2
:100BE00089ED90E0FC01808182958F70882F90E0E4
:100BF00081709927892BA1F789ED90E0FC01808114
:100C0000869586958695882F90E081709927892B07
:100C100039F7198249C08DEE90E029812295207F15
:100C2000FC0120838FEE90E0FC0180818295869507
:100C300086958370882321F089818F5F898334C0F2
:100C40008FEE90E02FE0FC01208383EF90E02B817A
:100C50003C813327369527953695279536952795E8
:100C6000FC01208382EF90E02B812295220F207ED1
:100C7000FC01208386EF90E020EEFC01208387EFCB
:100C800090E02FEFFC0120838FEE90E02FEE30E01C
:100C9000F90120812068FC0120838DEE90E02A81FB
:100CA000FC01208381E00AC089818F3008F4B3CF32
:100CB0008DEE90E02A81FC01208380E00F900F9060
:100CC0000F900F90DF91CF9108950F931F93CF93C3
:100CD000DF9300D0CDB7DEB78A830E946705198203
:100CE00030C08981882F90E001960E94E2058981B9
:100CF000882F90E0880F991F8C01025C1E4F61E0E5
:100D000070E085E090E00E942B1AF80191838083C7
:100D10008981882F90E02981222F30E04981442F5A
:100D200050E060E04A595E4FFA016083245A3E4F1A
:100D3000F90160838E5A9E4FFC01608389818F5F29
:100D4000898399818A81981760F20F900F90DF91C3
:100D5000CF911F910F910895CF93DF931F92CDB73D
:100D6000DEB789838981882F90E001978A599E4F49
:100D7000FC0180810F90DF91CF910895CF93DF9395
:100D800000D000D0CDB7DEB79B838A836C8384E329
:100D900090E02FEFFC01208300008C81882F90E0F1
:100DA00001978A599E4FFC0180818823B1F31982F3
:100DB0002CC08981882F90E02A813B81820F931F6C
:100DC0002C81222F30E021503048220F331F225C2B
:100DD0003E4FF901408151812C81222F30E021507A
:100DE0003109245A3E4FF9012081622F70E0298198
:100DF000222F30E0260F371F240F351FF9012081E5
:100E0000FC01208389818F5F89838981883088F202
:100E10008C81882F90E00197845A9E4FFC0120819D
:100E20002F5FFC012083253041F48C81882F90E0D6
:100E30000197845A9E4FFC0110828C81882F90E08C
:100E400001979C012A593E4FF901208121508A596E
:100E50009E4FFC01208380E00F900F900F900F9029
:100E6000DF91CF910895CF93DF9300D000D000D0D1
:100E7000CDB7DEB79D838C836E83000089ED90E053
:100E8000FC01808182958F70882F90E08170992776
:100E9000892BA1F789ED90E0FC01808186958695EC
:100EA0008695882F90E081709927892B39F78DEEF0
:100EB00090E0FC0180818B831A8215C08DEE90E05A
:100EC0002A812295207FFC0120838FEE90E0FC0197
:100ED00080818295869586958370882309F406C063
:100EE0008A818F5F8A838A818F3040F38A818F3035
:100EF00011F48FEF39C082EF90E02E812295220FFE
:100F0000207EFC01208383EF90E02E81269526959C
:100F10002695FC0120838FEE90E028E0FC012083E1
:100F2000198210C08AEF90E02981222F30E04C8195
:100F30005D81240F351FF9012081FC012083898107
:100F40008F5F89838981883068F38FEE90E02FEE80
:100F500030E0F90120812064FC0120838DEE90E0D7
:100F60002B81FC01208380E026960FB6F894DEBF2B
:100F70000FBECDBFDF91CF910895CF93DF9300D007
:100F800000D000D0CDB7DEB79A8389837C836B8392
:100F90005E834D838D819E8129813A81FC0131835D
:100FA000208389819A812D813E81FC0133832283B4
:100FB00089819A812B813C81FC01318320838B8143
:100FC0009C8129813A81FC013383228326960FB6C6
:100FD000F894DEBF0FBECDBFDF91CF910895CF93C0
:100FE000DF9300D000D0CDB7DEB79A8389837C83AE
:100FF0006B838B819C81FC01428153812B813C81DD
:1010000089819A81B9010E94BD070F900F900F90BE
:101010000F90DF91CF910895CF93DF93CDB7DEB7D7
:101020002B970FB6F894DEBF0FBECDBF89876A87B6
:101030004B8780910801909109019C838B838B8160
:101040009C8106979A83898315C089819A81FC01C6
:1010500090818985981711F481E0E5C089819A8192
:10106000FC01808591859E838D838D819E8106976D
:101070009A83898389819A8106968650914029F7BF
:1010800089858695869586958F5F8F8389858770FC
:1010900088878A85813009F055C08F81882F90E03C
:1010A0009C0121503109C901880F991F820F931F9C
:1010B0008196AC018F81882F90E09C0121503109ED
:1010C000C901880F991F820F931F8196FC018081AF
:1010D000682F8885282F30E081E090E002C0880FDB
:1010E000991F2A95E2F7862BFA0180838F81882F3A
:1010F00090E09C0121503109C901880F991F820F8E
:10110000931F8296AC018F81882F90E09C01215023
:101110003109C901880F991F820F931F8296FC0124
:101120008081682F8885282F30E081E090E002C020
:10113000880F991F2A95E2F780958623FA0180830C
:1011400080E071C08F81882F90E09C01215031098F
:10115000C901880F991F820F931F8196AC018F815F
:10116000882F90E09C0121503109C901880F991FF7
:10117000820F931F8196FC018081682F8885282F1C
:1011800030E081E090E002C0880F991F2A95E2F7D5
:1011900080958623FA0180838F81882F90E09C01BF
:1011A00021503109C901880F991F820F931F829620
:1011B000AC018F81882F90E09C0121503109C90139
:1011C000880F991F820F931F8296FC018081682FE0
:1011D0008885282F30E081E090E002C0880F991FB9
:1011E0002A95E2F7862BFA0180838AE090E00E943C
:1011F000471A9A83898389819A81892B11F481E026
:1012000012C089819A812985FC01208389819A8174
:101210002B85FC01218389819A81069666E071E025
:101220000E94EF0780E02B960FB6F894DEBF0FBE4A
:10123000CDBFDF91CF910895CF93DF9300D000D041
:10124000CDB7DEB78B836C838B818695869586952B
:101250008F5F89838B8187708B838981882F90E052
:101260009C0121503109C901880F991F820F931FDA
:101270008296FC0180819181A281B3818A838C81D5
:10128000882331F18981882F90E09C012150310918
:10129000C901880F991F820F931F8296AC018A8122
:1012A000282F30E08B81682F70E081E090E002C051
:1012B000880F991F6A95E2F7822B932B092E000C59
:1012C000AA0BBB0BFA0180839183A283B38327C04F
:1012D0008981882F90E09C0121503109C901880F34
:1012E000991F820F931F8296AC018A81282F30E0CC
:1012F0008B81682F70E081E090E002C0880F991F19
:101300006A95E2F78095909582239323092E000C2D
:10131000AA0BBB0BFA0180839183A283B38380E085
:101320000F900F900F900F90DF91CF910895CF9372
:10133000DF9300D01F92CDB7DEB78B838B8186956C
:10134000869586958F5F89838B8187708B83898152
:10135000882F90E09C0121503109C901880F991F05
:10136000820F931F8096FC0180818A838A81882F57
:1013700090E02B81222F30E002C0959587952A9529
:10138000E2F781700F900F900F90DF91CF91089549
:10139000CF93DF93CDB7DEB729970FB6F894DEBFB2
:1013A0000FBECDBF898780910801909109019D836F
:1013B0008C838C819D8106979A83898355C089810E
:1013C0009A81FC0190818985981709F041C01B82A0
:1013D0001FC08B81882F90E029813A81820F931F53
:1013E0000296FC0140818B81882F90E00196298133
:1013F0003A81820F931F0296FC018081481729F0E1
:1014000089819A81FC01858137C08B818F5F8B83B5
:101410008B818230F0F289819A81FC01918181E097
:101420008927882329F089819A81FC01828108C05B
:1014300089819A81FC01928181E0992309F080E001
:10144000888789819A812885FC012583888514C035
:1014500089819A81FC01808591859F838E838E810D
:101460009F8106979A83898389819A8106968650FF
:10147000914009F0A4CF81E029960FB6F894DEBF21
:101480000FBECDBFDF91CF9108950F931F93CF93E0
:10149000DF9300D000D000D0CDB7DEB78091080137
:1014A000909109019C838B838B819C8106979A8301
:1014B00089831EC0009172011091730189819A8104
:1014C000FC0180810E949709282F89819A81800FD1
:1014D000911F0296FC01208389819A81FC018085FD
:1014E00091859E838D838D819E8106979A838983C2
:1014F00089819A81069686509140E1F68091720129
:1015000090917301019690937301809372010397F8
:1015100021F4109273011092720126960FB6F8947E
:10152000DEBF0FBECDBFDF91CF911F910F91089508
:10153000CF93DF93CDB7DEB767970FB6F894DEBFD2
:101540000FBECDBF8F8B809174019F89981709F4CE
:1015500082C086E58F878F89888B72C080E090E09B
:10156000A8E4B2E489839A83AB83BC8320E030E0B3
:101570004AE753E469817A818B819C810E94BE197C
:10158000DC01CB018D839E83AF83B88720E030E000
:1015900040E85FE36D817E818F8198850E946118AC
:1015A00088232CF481E090E09A8789873FC020E06F
:1015B0003FEF4FE757E46D817E818F8198850E94D0
:1015C000B91918164CF520E030E040E251E4698189
:1015D0007A818B819C810E94BE19DC01CB01BC0108
:1015E000CD010E94D818DC01CB019A8789870FC0F2
:1015F00089E190E09C878B878B859C850197F1F72B
:101600009C878B8789859A8501979A8789878985A1
:101610009A85892B69F714C06D817E818F819885A9
:101620000E94D818DC01CB019A87898789859A8521
:101630009E878D878D859E850197F1F79E878D8783
:10164000CE010F9663EC0E943307882309F086CF02
:101650008F898093740167960FB6F894DEBF0FBE32
:10166000CDBFDF91CF910895CF93DF93CDB7DEB794
:1016700066970FB6F894DEBF0FBECDBF80E58F87AB
:1016800072C080E090E0A8E4B2E489839A83AB83DF
:10169000BC8320E030E04AE753E469817A818B81A2
:1016A0009C810E94BE19DC01CB018D839E83AF8398
:1016B000B88720E030E040E85FE36D817E818F8174
:1016C00098850E94611888232CF481E090E09A8725
:1016D00089873FC020E03FEF4FE757E46D817E816F
:1016E0008F8198850E94B91918164CF520E030E0DA
:1016F00040E251E469817A818B819C810E94BE190C
:10170000DC01CB01BC01CD010E94D818DC01CB016A
:101710009A8789870FC089E190E09C878B878B85AA
:101720009C850197F1F79C878B8789859A8501971E
:101730009A87898789859A85892B69F714C06D8175
:101740007E818F8198850E94D818DC01CB019A8711
:10175000898789859A859E878D878D859E85019746
:10176000F1F79E878D87CE010F9663EC0E943307B9
:10177000882309F086CFCE010F9661E00E94BE0655
:101780008F85809310018889882F90E0382F222739
:101790008989882F90E0822B932B90930B01809363
:1017A0000A018A89882F90E0382F22278B89882F79
:1017B00090E0822B932B90930D0180930C018C89E8
:1017C000882F90E0382F22278D89882F90E0822B58
:1017D000932B90930F0180930E0166960FB6F894A9
:1017E000DEBF0FBECDBFDF91CF910895CF93DF93C2
:1017F00000D000D000D0CDB7DEB79E838D830E948D
:101800008E11DC01CB0189839A83AB83BC830E9458
:10181000340B8D819E81892B71F089819A81AB81F6
:10182000BC812D813E81BC01CD01F901099581303A
:1018300011F481E009C0809110018D3441F3809151
:101840001001823521F380E026960FB6F894DEBFB2
:101850000FBECDBFDF91CF910895CF93DF93CDB76A
:10186000DEB767970FB6F894DEBF0FBECDBF8F8B84
:101870008F898F8772C080E090E0A8E4B2E489830A
:101880009A83AB83BC8320E030E04AE753E469816C
:101890007A818B819C810E94BE19DC01CB018D83F2
:1018A0009E83AF83B88720E030E040E85FE36D813E
:1018B0007E818F8198850E94611888232CF481E0B5
:1018C00090E09A8789873FC020E03FEF4FE757E4D9
:1018D0006D817E818F8198850E94B91918164CF50B
:1018E00020E030E040E251E469817A818B819C8183
:1018F0000E94BE19DC01CB01BC01CD010E94D818A9
:10190000DC01CB019A8789870FC089E190E09C8731
:101910008B878B859C850197F1F79C878B878985C1
:101920009A8501979A87898789859A85892B69F78E
:1019300014C06D817E818F8198850E94D818DC014A
:10194000CB019A87898789859A859E878D878D8522
:101950009E850197F1F79E878D87CE010F9663ECE8
:101960000E943307882309F086CF0E94340B8091B0
:1019700010018D3409F47CCF80911001823509F477
:1019800077CF67960FB6F894DEBF0FBECDBFDF915D
:10199000CF910895CF93DF93CDB7DEB76B970FB696
:1019A000F894DEBF0FBECDBF988F8F8B698F5B8F92
:1019B0004A8F898D0E94980A8F89988D919581957B
:1019C0009109988F8F8B84E48F878F89988D892FC9
:1019D000990F990B888B8F89898B72C080E090E07A
:1019E000A8E4B2E489839A83AB83BC8320E030E02F
:1019F0004AE753E469817A818B819C810E94BE19F8
:101A0000DC01CB018D839E83AF83B88720E030E07B
:101A100040E85FE36D817E818F8198850E94611827
:101A200088232CF481E090E09A8789873FC020E0EA
:101A30003FEF4FE757E46D817E818F8198850E944B
:101A4000B91918164CF520E030E040E251E4698104
:101A50007A818B819C810E94BE19DC01CB01BC0183
:101A6000CD010E94D818DC01CB019A8789870FC06D
:101A700089E190E09C878B878B859C850197F1F7A6
:101A80009C878B8789859A8501979A87898789851D
:101A90009A85892B69F714C06D817E818F81988525
:101AA0000E94D818DC01CB019A87898789859A859D
:101AB0009E878D878D859E850197F1F79E878D87FF
:101AC000CE010F9663EC0E943307882309F086CF7E
:101AD0008A8D9B8D0E94F60B6B960FB6F894DEBF35
:101AE0000FBECDBFDF91CF910895CF93DF93CDB7D8
:101AF000DEB76C970FB6F894DEBF0FBECDBF988FE0
:101B00008F8B698F4A8F3C8F2B8F898D0E94980A0B
:101B100087E48F878F89988DFC0180819181892F3F
:101B2000990F990B888B8F89988DFC018081918109
:101B3000898B8F89988DFC0182819381892F990FE0
:101B4000990B8A8B8F89988DFC01828193818B8B75
:101B50001C8A8A8D81958D8B72C080E090E0A8E40C
:101B6000B2E489839A83AB83BC8320E030E04AE708
:101B700053E469817A818B819C810E94BE19DC01CA
:101B8000CB018D839E83AF83B88720E030E040E8AF
:101B90005FE36D817E818F8198850E946118882323
:101BA0002CF481E090E09A8789873FC020E03FEFE6
:101BB0004FE757E46D817E818F8198850E94B91926
:101BC00018164CF520E030E040E251E469817A815A
:101BD0008B819C810E94BE19DC01CB01BC01CD012F
:101BE0000E94D818DC01CB019A8789870FC089E150
:101BF00090E09C878B878B859C850197F1F79C876C
:101C00008B8789859A8501979A87898789859A859F
:101C1000892B69F714C06D817E818F8198850E9420
:101C2000D818DC01CB019A87898789859A859E8798
:101C30008D878D859E850197F1F79E878D87CE01D3
:101C40000F9663EC0E943307882309F086CF80E06B
:101C50006C960FB6F894DEBF0FBECDBFDF91CF916B
:101C60000895CF93DF93CDB7DEB769970FB6F89499
:101C7000DEBF0FBECDBF998F888F89E4888B888D9A
:101C8000998DFC0180819181892F990F990B898B06
:101C9000888D998DFC01808191818A8B888D998DA9
:101CA000FC0182819381892F990F990B8B8B888DF1
:101CB000998DFC01828193818C8B888D998DFC019B
:101CC00084819581819589838981082E000C990BE7
:101CD000892F990F990B8D8B89818E8B888D998D8A
:101CE000FC018081918190930B0180930A01888D82
:101CF000998DFC018281938190930D0180930C0159
:101D0000888D998DFC0184819581919581959109AA
:101D100090930F0180930E0172C080E090E0A8E4E0
:101D2000B2E48A839B83AC83BD8320E030E04AE742
:101D300053E46A817B818C819D810E94BE19DC0104
:101D4000CB018E839F83A887B98720E030E040E8ED
:101D50005FE36E817F81888599850E946118882361
:101D60002CF481E090E09B878A873FC020E03FEF22
:101D70004FE757E46E817F81888599850E94B91964
:101D800018164CF520E030E040E251E46A817B8196
:101D90008C819D810E94BE19DC01CB01BC01CD016B
:101DA0000E94D818DC01CB019B878A870FC089E18C
:101DB00090E09D878C878C859D850197F1F79D87A5
:101DC0008C878A859B8501979B878A878A859B85D7
:101DD000892B69F714C06E817F81888599850E945F
:101DE000D818DC01CB019B878A878A859B859F87D2
:101DF0008E878E859F850197F1F79F878E87CE010D
:101E0000409663EC0E943307882309F086CF6996D9
:101E10000FB6F894DEBF0FBECDBFDF91CF9108950E
:101E2000CF93DF93CDB7DEB76B970FB6F894DEBFD5
:101E30000FBECDBF988F8F8B698F5B8F4A8F898D37
:101E40000E94980A8F89988D919581959109988F14
:101E50008F8B84E58F878F89988D892F990F990BA8
:101E6000888B8F89898B72C080E090E0A8E4B2E40F
:101E700089839A83AB83BC8320E030E04AE753E454
:101E800069817A818B819C810E94BE19DC01CB0122
:101E90008D839E83AF83B88720E030E040E85FE326
:101EA0006D817E818F8198850E94611888232CF432
:101EB00081E090E09A8789873FC020E03FEF4FE7BD
:101EC00057E46D817E818F8198850E94B91918161B
:101ED0004CF520E030E040E251E469817A818B8169
:101EE0009C810E94BE19DC01CB01BC01CD010E9486
:101EF000D818DC01CB019A8789870FC089E190E06F
:101F00009C878B878B859C850197F1F79C878B87B6
:101F100089859A8501979A87898789859A85892BEA
:101F200069F714C06D817E818F8198850E94D818D1
:101F3000DC01CB019A87898789859A859E878D8761
:101F40008D859E850197F1F79E878D87CE010F962F
:101F500063EC0E943307882309F086CF8A8D9B8D1E
:101F60000E94F60B6B960FB6F894DEBF0FBECDBF86
:101F7000DF91CF910895CF93DF93CDB7DEB76B9705
:101F80000FB6F894DEBF0FBECDBF988F8F8B698FD1
:101F90005B8F4A8F898D0E94980A8F89988D9195C1
:101FA00081959109988F8F8B81E48F878F89988D88
:101FB000892F990F990B888B8F89898B72C080E04C
:101FC00090E0A8E4B2E489839A83AB83BC8320E0E9
:101FD00030E04AE753E469817A818B819C810E94D9
:101FE000BE19DC01CB018D839E83AF83B88720E0CF
:101FF00030E040E85FE36D817E818F8198850E94AB
:10200000611888232CF481E090E09A8789873FC08B
:1020100020E03FEF4FE757E46D817E818F81988507
:102020000E94B91918164CF520E030E040E251E466
:1020300069817A818B819C810E94BE19DC01CB0170
:10204000BC01CD010E94D818DC01CB019A87898799
:102050000FC089E190E09C878B878B859C850197D9
:10206000F1F79C878B8789859A8501979A8789875D
:1020700089859A85892B69F714C06D817E818F814E
:1020800098850E94D818DC01CB019A8789878985B9
:102090009A859E878D878D859E850197F1F79E870E
:1020A0008D87CE010F9663EC0E943307882309F0D9
:1020B00086CF8A8D9B8D0E94F60B6B960FB6F89497
:1020C000DEBF0FBECDBFDF91CF910895CF93DF93D9
:1020D000CDB7DEB780911001DF91CF910895CF93F6
:1020E000DF93CDB7DEB780910A0190910B01DF91AC
:1020F000CF910895CF93DF93CDB7DEB780910C01D8
:1021000090910D01DF91CF910895CF93DF93CDB7DB
:10211000DEB780910E0190910F01DF91CF9108956C
:10212000CF93DF9300D0CDB7DEB79A8389838981BF
:102130009A8190937B0180937A010F900F90DF91A9
:10214000CF9108950F931F93CF93DF9300D0CDB716
:10215000DEB79A83898380E890E0FC01108281E8F1
:1021600090E029E0FC01208308E810E089819A8151
:10217000CC01A0E0B0E0BC01CD010E940719DC0158
:10218000CB019C01AD0160E074E284E799E40E9418
:102190006618DC01CB0120E030E040E05FE3BC01E9
:1021A000CD010E94F517DC01CB01BC01CD010E94DD
:1021B000D818DC01CB01F801918380838FE690E091
:1021C00022E0FC0120838FE590E02FE530E0F9016B
:1021D00020812068FC0120830F900F90DF91CF9128
:1021E0001F910F9108951F920F9200905F000F9220
:1021F000112400905B000F922F933F934F935F93B6
:102200006F937F938F939F93AF93BF93EF93FF93BE
:10221000CF93DF93CDB7DEB780917A0190917B01A8
:10222000892B31F080917A0190917B01FC01099515
:102230008091750190917601A0917701B09178011C
:1022400080399F45A140B10540F00E949F1188232D
:1022500021F083E50E942D0CFFCF809175019091B4
:102260007601A0917701B09178010196A11DB11D71
:102270008093750190937601A0937701B0937801D4
:10228000DF91CF91FF91EF91BF91AF919F918F918E
:102290007F916F915F914F913F912F910F9000929D
:1022A0005B000F9000925F000F901F901895CF93E6
:1022B000DF93CDB7DEB789E20E94C809813011F4FF
:1022C00081E001C080E0DF91CF910895CF93DF934B
:1022D000CDB7DEB78AE20E94C809813011F481E0EF
:1022E00001C080E0DF91CF910895CF93DF93CDB708
:1022F000DEB710927501109276011092770110925C
:102300007801DF91CF910895CF93DF93CDB7DEB7FA
:1023100081E080937901DF91CF910895CF93DF938E
:10232000CDB7DEB78091750190917601A0917701CC
:10233000B0917801BC01CD01DF91CF910895CF9389
:10234000DF93CDB7DEB780917901DF91CF9108950A
:10235000CF93DF93CDB7DEB780918B0290918C0243
:10236000DF91CF910895CF93DF93CDB7DEB76C9710
:102370000FB6F894DEBF0FBECDBF85E49AE00E9491
:10238000901080E090E0A8ECB2E489839A83AB835C
:10239000BC8320E030E04AE753E469817A818B8195
:1023A0009C810E94BE19DC01CB018D839E83AF838B
:1023B000B88720E030E040E85FE36D817E818F8167
:1023C00098850E94611888232CF481E090E09A8718
:1023D00089873FC020E03FEF4FE757E46D817E8162
:1023E0008F8198850E94B91918164CF520E030E0CD
:1023F00040E251E469817A818B819C810E94BE19FF
:10240000DC01CB01BC01CD010E94D818DC01CB015D
:102410009A8789870FC089E190E09C878B878B859D
:102420009C850197F1F79C878B8789859A85019711
:102430009A87898789859A85892B69F714C06D8168
:102440007E818F8198850E94D818DC01CB019A8704
:10245000898789859A859E878D878D859E85019739
:10246000F1F79E878D8740E060E088E20E940C08CB
:1024700040E060E089E20E940C0883E390E02FEFE7
:10248000FC01208384E390E0FC01108282E390E071
:102490000E946B0088EE93E00E94A21081E00E94EF
:1024A000650640E060E875E280E090E00E94EC1490
:1024B0000E941402000088E20E94C8098823D9F310
:1024C00080E090E0A0E2B1E48F87988BA98BBA8B73
:1024D00020E030E04AE753E46F85788989899A895A
:1024E0000E94BE19DC01CB018B8B9C8BAD8BBE8B0C
:1024F00020E030E040E85FE36B897C898D899E892C
:102500000E94611888232CF481E090E0988F8F8BD3
:102510003FC020E03FEF4FE757E46B897C898D890E
:102520009E890E94B91918164CF520E030E040E26F
:1025300051E46F85788989899A890E94BE19DC01E6
:10254000CB01BC01CD010E94D818DC01CB01988FD2
:102550008F8B0FC089E190E09A8F898F898D9A8D3A
:102560000197F1F79A8F898F8F89988D0197988FAE
:102570008F8B8F89988D892B69F714C06B897C8923
:102580008D899E890E94D818DC01CB01988F8F8B92
:102590008F89988D9C8F8B8F8B8D9C8D0197F1F7F8
:1025A0009C8F8B8F84E390E02FEFFC0120830E94AF
:1025B00075110E9484116C960FB6F894DEBF0FBEA1
:1025C000CDBFDF91CF910895CF93DF9300D0CDB7EA
:1025D000DEB789836A838981813049F58A818130B8
:1025E00071F488E00E94C809882329F08AE00E94DB
:1025F000C809882311F481E047C080E045C08A8182
:10260000813049F488E00E94C809882311F481E0F0
:102610003BC080E039C08A818823A9F58AE00E9406
:10262000C809882311F481E02FC080E02DC0898182
:10263000823049F58A81813071F48CE00E94C809AA
:10264000882329F08EE00E94C809882311F481E0D4
:102650001BC080E019C08A81813049F48CE00E945F
:10266000C809882311F481E00FC080E00DC08A8181
:10267000882349F48EE00E94C809882311F481E080
:1026800003C080E001C080E00F900F90DF91CF91F8
:102690000895CF93DF93CDB7DEB727970FB6F894A1
:1026A000DEBF0FBECDBF6B837C838D839E834F8344
:1026B00080EC90E0FC01108281EC90E028E1FC01CC
:1026C000208382EC90E026E0FC0120838F81813022
:1026D00091F481EC90E021EC30E0F9012081206C54
:1026E000FC0120838FE590E02FE530E0F9012081A7
:1026F0002068FC0120836B817C818D819E810E94FA
:102700000719DC01CB0120E030E040E851E4BC01D6
:10271000CD010E94BE19DC01CB019C01AD0160E03E
:1027200074E284E799E40E946618DC01CB0120E0A2
:1027300030E040E85FE3BC01CD010E94F417DC010A
:10274000CB0120E030E040E05FE3BC01CD010E941E
:10275000F517DC01CB01BC01CD010E94D818DC01CA
:10276000CB019A83898385EC90E029813A81232FDC
:102770003327FC01208384EC90E02981FC01208335
:1027800027960FB6F894DEBF0FBECDBFDF91CF9175
:1027900008951F920F9200905F000F9211240090F5
:1027A0005B000F922F933F938F939F93EF93FF9331
:1027B000CF93DF93CDB7DEB78091BF018823D1F0EF
:1027C0008091BF0181508093BF0186EC90E0209101
:1027D000C001222F30E022583E4FF9012081FC0138
:1027E00020838091C0018F5F8093C001803411F4F9
:1027F0001092C001DF91CF91FF91EF919F918F9146
:102800003F912F910F9000925B000F9000925F001C
:102810000F901F901895CF93DF931F92CDB7DEB71F
:10282000898381EC90E0FC01808182958695869574
:102830008370882F90E081709927892B99F100008F
:102840008091BF018034E1F3F8948091BF01882327
:1028500051F480EC90E0FC018081882F90E0807240
:102860009927892BC1F48091BE01882F90E082586E
:102870009E4F2981FC0120838091BE018F5F809350
:10288000BE01803411F41092BE018091BF018F5FB0
:102890008093BF0105C086EC90E02981FC01208374
:1028A000789403C089810E94FA150F90DF91CF912F
:1028B00008951F920F9200905F000F9211240090D4
:1028C0005B000F922F933F938F939F93EF93FF9310
:1028D000CF93DF931F92CDB7DEB780EC90E0FC0181
:1028E000808189838981882F90E08C719927892B39
:1028F000D1F480910102882F90E026EC30E0F901BC
:1029000020818F539E4FFC012083809101028F5FB5
:1029100080930102803411F410920102809102022E
:102920008F5F809302020F90DF91CF91FF91EF9123
:102930009F918F913F912F910F9000925B000F908C
:1029400000925F000F901F901895CF93DF931F9216
:10295000CDB7DEB781EC90E0FC018081881F88272D
:10296000881F882F90E081709927892BE9F000005B
:10297000809102028823E1F380910302882F90E086
:102980008F539E4FFC0180818983809103028F5F6A
:1029900080930302803411F41092030280910202AA
:1029A00081508093020213C0000080EC90E0FC0193
:1029B0008081881F8827881F882F90E08170992741
:1029C000892B99F386EC90E0FC01808189838981D1
:1029D0000F90DF91CF910895CF93DF93CDB7DEB7FE
:1029E00027970FB6F894DEBF0FBECDBF6B837C83F5
:1029F0008D839E834F8388EC90E0FC01108289ECEC
:102A000090E028E1FC0120838AEC90E026E0FC01C4
:102A100020838F81813091F489EC90E029EC30E0C3
:102A2000F9012081206CFC0120838FE590E02FE5E7
:102A300030E0F90120812068FC0120836B817C81DA
:102A40008D819E810E940719DC01CB0120E030E0DE
:102A500040E851E4BC01CD010E94BE19DC01CB016C
:102A60009C01AD0160E074E284E799E40E9466187D
:102A7000DC01CB0120E030E040E85FE3BC01CD01A8
:102A80000E94F417DC01CB0120E030E040E05FE37E
:102A9000BC01CD010E94F517DC01CB01BC01CD01C9
:102AA0000E94D818DC01CB019A8389838DEC90E0D9
:102AB00029813A81232F3327FC0120838CEC90E07D
:102AC0002981FC01208327960FB6F894DEBF0FBE44
:102AD000CDBFDF91CF9108951F920F9200905F00BC
:102AE0000F92112400905B000F922F933F938F93CE
:102AF0009F93EF93FF93CF93DF93CDB7DEB7809192
:102B000045028823D1F0809145028150809345028F
:102B10008EEC90E020914602222F30E02C5F3D4F5A
:102B2000F9012081FC012083809146028F5F809310
:102B30004602803411F410924602DF91CF91FF914A
:102B4000EF919F918F913F912F910F9000925B0099
:102B50000F9000925F000F901F9018951F920F9298
:102B600000905F000F92112400905B000F922F9352
:102B70003F938F939F93EF93FF93CF93DF931F9296
:102B8000CDB7DEB788EC90E0FC0180818983898134
:102B9000882F90E08C719927892BD1F4809187023E
:102BA000882F90E02EEC30E0F9012081895B9D4F69
:102BB000FC012083809187028F5F8093870280349D
:102BC00011F410928702809188028F5F80938802AF
:102BD0000F90DF91CF91FF91EF919F918F913F9156
:102BE0002F910F9000925B000F9000925F000F906A
:102BF0001F901895CF93DF931F92CDB7DEB78983CF
:102C0000000080EC90E0FC018081882F90E08072D1
:102C10009927892BB1F386EC90E02981FC01208370
:102C20000F90DF91CF910895CF93DF931F92CDB78F
:102C3000DEB78983000088EC90E0FC018081882F5A
:102C400090E080729927892BB1F38EEC90E0298176
:102C5000FC0120830F90DF91CF910895CF93DF93F4
:102C60001F92CDB7DEB7898389EC90E0FC018081AB
:102C70008295869586958370882F90E0817099273C
:102C8000892B99F10000809145028034E1F3F8949A
:102C900080914502882351F488EC90E0FC0180810A
:102CA000882F90E080729927892BC1F4809144028B
:102CB000882F90E08C5F9D4F2981FC0120838091BB
:102CC00044028F5F80934402803411F410924402D6
:102CD000809145028F5F8093450205C08EEC90E0A5
:102CE0002981FC012083789403C089810E941416F5
:102CF0000F90DF91CF910895CF93DF931F92CDB7BF
:102D0000DEB789EC90E0FC018081881F8827881F4E
:102D1000882F90E081709927892BE9F0000080913D
:102D200088028823E1F380918902882F90E0895BF3
:102D30009D4FFC0180818983809189028F5F809300
:102D40008902803411F410928902809188028150A6
:102D50008093880213C0000088EC90E0FC01808121
:102D6000881F8827881F882F90E081709927892BDA
:102D700099F38EEC90E0FC018081898389810F902A
:102D8000DF91CF910895CF93DF93CDB7DEB72B9727
:102D90000FB6F894DEBF0FBECDBF19821A8281E054
:102DA0008B831E821D8218861F821A861986CE0189
:102DB00005960E94310E8B81082E000C990B8130F4
:102DC000910521F0029709F443C084C08A81898368
:102DD0003CC040E050E08981282F30E06BE0629FEA
:102DE000C001639F900D1124815D9E4FDC018C9189
:102DF000E82F8981282F30E06BE0629FC001639F3C
:102E0000900D1124825D9E4FDC017C918981282FD9
:102E100030E06BE0629FC001639F900D1124895DDB
:102E20009E4F9A014E2F672F0E94750D8C838C81C7
:102E3000813009F40DC08981813021F483E50E943D
:102E40002D0CFFCF89818F5F89838981882309F2C7
:102E50008A8189833CC040E050E08981282F30E09E
:102E60006BE0629FC001639F900D1124865C9E4FB2
:102E7000FC018081E82F8981282F30E06BE0629F80
:102E8000C001639F900D1124875C9E4FDC017C91F3
:102E90008981282F30E06BE0629FC001639F900D15
:102EA00011248E5C9E4F9A014E2F672F0E94750D44
:102EB0008C838C81813009F40DC08981813021F4AB
:102EC00083E50E942D0CFFCF89818F5F89838981E3
:102ED000882309F270CFCF93DF93CDB7DEB72E975B
:102EE0000FB6F894DEBF0FBECDBF0E94B31180E0D5
:102EF00090E0A8ECB2E489839A83AB83BC8320E0A2
:102F000030E04AE753E469817A818B819C810E9499
:102F1000BE19DC01CB018D839E83AF83B88720E08F
:102F200030E040E85FE36D817E818F8198850E946B
:102F3000611888232CF481E090E09A8789873FC04C
:102F400020E03FEF4FE757E46D817E818F819885C8
:102F50000E94B91918164CF520E030E040E251E427
:102F600069817A818B819C810E94BE19DC01CB0131
:102F7000BC01CD010E94D818DC01CB019A8789875A
:102F80000FC089E190E09C878B878B859C8501979A
:102F9000F1F79C878B8789859A8501979A8789871E
:102FA00089859A85892B69F714C06D817E818F810F
:102FB00098850E94D818DC01CB019A87898789857A
:102FC0009A859E878D878D859E850197F1F79E87CF
:102FD0008D8780E090E02E960FB6F894DEBF0FBE8E
:102FE000CDBFDF91CF9108955058BB27AA270E94EB
:102FF0000C180C947F190E94711938F00E947819EE
:1030000020F039F49F3F19F426F40C946E190EF455
:10301000E095E7FB0C946819E92F0E94901958F38A
:10302000BA17620773078407950720F079F4A6F5AD
:103030000C94B2190EF4E0950B2EBA2FA02D0B01B3
:10304000B90190010C01CA01A0011124FF27591BED
:1030500099F0593F50F4503E68F11A16F040A22FF3
:10306000232F342F4427585FF3CF46953795279564
:10307000A795F0405395C9F77EF41F16BA0B620B63
:10308000730B840BBAF09150A1F0FF0FBB1F661FAA
:10309000771F881FC2F70EC0BA0F621F731F841FED
:1030A00048F4879577956795B795F7959E3F08F013
:1030B000B0CF9395880F08F09927EE0F97958795D5
:1030C00008950E94441908F481E008950E947A1836
:1030D0000C947F190E94781958F00E94711940F0E1
:1030E00029F45F3F29F00C94681951110C94B3191D
:1030F0000C946E190E94901968F39923B1F355232B
:1031000091F3951B550BBB27AA27621773078407FA
:1031100038F09F5F5F4F220F331F441FAA1FA9F390
:1031200035D00E2E3AF0E0E832D091505040E6957E
:10313000001CCAF72BD0FE2F29D0660F771F881FDF
:10314000BB1F261737074807AB07B0E809F0BB0BD2
:10315000802DBF01FF2793585F4F3AF09E3F5105E6
:1031600078F00C9468190C94B3195F3FE4F3983E1F
:10317000D4F3869577956795B795F7959F5FC9F7CF
:10318000880F911D9695879597F90895E1E0660F50
:10319000771F881FBB1F621773078407BA0720F0C9
:1031A000621B730B840BBA0BEE1F88F7E095089532
:1031B0000E94981988F09F5798F0B92F9927B75116
:1031C000B0F0E1F0660F771F881F991F1AF0BA95CB
:1031D000C9F714C0B13091F00E94B219B1E008955E
:1031E0000C94B219672F782F8827B85F39F0B93F50
:1031F000CCF3869577956795B395D9F73EF490957E
:103200008095709561957F4F8F4F9F4F0895E894FB
:1032100009C097FB3EF490958095709561957F4F1E
:103220008F4F9F4F9923A9F0F92F96E9BB279395CC
:10323000F695879577956795B795F111F8CFFAF4DC
:10324000BB0F11F460FF1BC06F5F7F4F8F4F9F4F0D
:1032500016C0882311F096E911C0772321F09EE86B
:10326000872F762F05C0662371F096E8862F70E0D1
:1032700060E02AF09A95660F771F881FDAF7880FAB
:103280009695879597F90895990F0008550FAA0B01
:10329000E0E8FEEF16161706E807F907C0F0121669
:1032A0001306E407F50798F0621B730B840B950B6C
:1032B00039F40A2661F0232B242B252B21F40895C1
:1032C0000A2609F4A140A6958FEF811D811D08955E
:1032D00097F99F6780E870E060E008959FEF80ECC9
:1032E000089500240A94161617061806090608956C
:1032F00000240A9412161306140605060895092ED2
:103300000394000C11F4882352F0BB0F40F4BF2B40
:1033100011F460FF04C06F5F7F4F8F4F9F4F089580
:1033200057FD9058440F551F59F05F3F71F0479576
:10333000880F97FB991F61F09F3F79F0879508955B
:10334000121613061406551FF2CF4695F1DF08C07A
:10335000161617061806991FF1CF86957105610597
:1033600008940895E894BB2766277727CB0197F93F
:1033700008950E94441908F48FEF08950E94D1190E
:103380000C947F190E94711938F00E94781920F06E
:10339000952311F00C9468190C946E1911240C9457
:1033A000B3190E94901970F3959FC1F3950F50E0E7
:1033B000551F629FF001729FBB27F00DB11D639FE7
:1033C000AA27F00DB11DAA1F649F6627B00DA11D8D
:1033D000661F829F2227B00DA11D621F739FB00D33
:1033E000A11D621F839FA00D611D221F749F3327A3
:1033F000A00D611D231F849F600D211D822F762F3C
:103400006A2F11249F5750409AF0F1F088234AF018
:10341000EE0FFF1FBB1F661F771F881F9150504084
:10342000A9F79E3F510580F00C9468190C94B319CC
:103430005F3FE4F3983ED4F3869577956795B7950B
:10344000F795E7959F5FC1F7FE2B880F911D969525
:10345000879597F908950F931F93CF93DF93869FD6
:103460008001879F100D969F100D1124C8010E94A6
:10347000471AEC01009729F0A80160E070E00E9473
:10348000741BCE01DF91CF911F910F910895CF93BF
:10349000DF938230910510F482E090E0E091900299
:1034A000F091910220E030E0C0E0D0E0309711F1DF
:1034B0004081518148175907C0F04817590761F4F6
:1034C00082819381209719F09B838A832BC09093EC
:1034D00091028093900226C02115310519F0421700
:1034E000530718F49A01BE01DF01EF010280F38156
:1034F000E02DDCCF2115310509F1281B390B2430D3
:10350000310590F412968D919C9113976115710578
:1035100021F0FB019383828304C0909391028093F6
:103520009002FD01329644C0FD01E20FF31F81932A
:103530009193225031092D933C933AC020918E02F1
:1035400030918F02232B41F420910201309103012D
:1035500030938F0220938E0220910001309101015F
:103560002115310541F42DB73EB74091040150912A
:103570000501241B350BE0918E02F0918F02E217BA
:10358000F307A0F42E1B3F0B2817390778F0AC0186
:103590004E5F5F4F2417350748F04E0F5F1F509363
:1035A0008F0240938E028193919302C0E0E0F0E09D
:1035B000CF01DF91CF9108950F931F93CF93DF93A6
:1035C000009709F48CC0FC0132971382128200919B
:1035D0009002109191020115110581F42081318131
:1035E000820F931F20918E0230918F022817390786
:1035F00079F5F0938F02E0938E0271C0D80140E01C
:1036000050E0AE17BF0750F412962D913C911397DE
:10361000AD012115310509F1D901F3CF9D01DA0181
:103620003383228360817181860F971F82179307EE
:1036300069F4EC0128813981260F371F2E5F3F4F37
:10364000318320838A819B8193838283452B29F454
:10365000F0939102E093900242C01396FC93EE9394
:103660001297ED01499159919E01240F351FE217E0
:10367000F30771F480819181840F951F0296119652
:103680009C938E938281938113969C938E93129731
:10369000E0E0F0E0D80112968D919C91139700978D
:1036A00019F0F8018C01F6CF8D919C9198012E5F55
:1036B0003F4F820F931F20918E0230918F02281767
:1036C000390769F4309729F4109291021092900210
:1036D00002C01382128210938F0200938E02DF9138
:1036E000CF911F910F910895DC0101C06D9341505E
:0A36F0005040E0F70895F894FFCF72
:1036FA0000009202200006010601000000000000FE
:10370A004964000000000000140100006400000089
:10371A000000001401000064000000000000140111
:0E372A00000064000000000000140100000018
:00000001FF
