:100000000C944A000C9469000C9469000C946900EB
:100010000C9469000C9469000C9469000C946900BC
:100020000C9469000C9469000C946B000C946900AA
:100030000C94F7150C9469000C9469000C946900F9
:100040000C9469000C9469000C94AB090C94690041
:100050000C9469000C941E190C9469000C948E1871
:100060000C9469000C9469000C9469000C9469006C
:100070000C9469000C9469000C9469000C9469005C
:100080000C94731A0C9469000C94311A0C94690046
:100090000C94690011241FBECFEFD0E1DEBFCDBFAD
:1000A00011E0A0E0B1E0E6EFF0E400E00BBF02C039
:1000B00007900D92AE33B107D9F722E0AEE3B1E07D
:1000C00001C01D92AE39B207E1F70E94241C0C94C6
:1000D00079200C9400001F920F9200905F000F9205
:1000E000112400905B000F928F939F93AF93BF9367
:1000F000EF93FF93CF93DF93CDB7DEB780913E01AF
:1001000090913F01A0914001B09141010196A11D44
:10011000B11D80933E0190933F01A0934001B093A5
:10012000410182EB90E0FC011082DF91CF91FF91C1
:10013000EF91BF91AF919F918F910F9000925B00D3
:100140000F9000925F000F901F9018950F931F93D0
:10015000CF93DF9300D0CDB7DEB79A8389838DE24A
:1001600090E02DE230E0F90120812863FC0120833A
:1001700084E290E024E230E0F90120812068FC0173
:10018000208384E990E0FC011182108286E490E0F3
:10019000FC01108288E990E0FC01118210828AE95A
:1001A00090E0FC01118210828CE990E0FC01118248
:1001B000108280E990E02EEBFC01208381E990E041
:1001C0002AE1FC01208384E490E02BE6FC012083FB
:1001D00006E910E089819A81CC01A0E0B0E0BC0181
:1001E000CD010E94051EDC01CB0120E030E040E0A3
:1001F00051E4BC01CD010E94BC1EDC01CB019C017D
:10020000AD0160E876E988E19BE40E945D1DDC01B8
:10021000CB0120E030E040E05FE3BC01CD010E9473
:10022000EC1CDC01CB01BC01CD010E94D61DDC0120
:10023000CB01F801918380830F900F90DF91CF91D4
:100240001F910F910895CF92DF92EF92FF92CF937B
:10025000DF9300D000D0CDB7DEB79C838B8386E9D7
:1002600090E0FC0180819181CC01A0E0B0E0BC0174
:10027000CD010E94051EDC01CB0120E030E04FE7FC
:1002800053E4BC01CD010E945D1DDC01CB016C017A
:100290007D018B819C81092E000CAA0BBB0BBC013C
:1002A000CD010E94071EDC01CB019C01AD01C701FD
:1002B000B6010E94BC1EDC01CB0120E030E040E032
:1002C0005FE3BC01CD010E94EC1CDC01CB01BC0151
:1002D000CD010E94D61DDC01CB019A83898389E977
:1002E00090E029813A81232F3327FC01208388E97C
:1002F00090E02981FC0120830F900F900F900F90C8
:10030000DF91CF91FF90EF90DF90CF900895CF9243
:10031000DF92EF92FF92CF93DF9300D000D0CDB762
:10032000DEB79C838B8386E990E0FC01808191811C
:10033000CC01A0E0B0E0BC01CD010E94051EDC01B3
:10034000CB0120E030E04FE753E4BC01CD010E9437
:100350005D1DDC01CB016C017D018B819C81092E2F
:10036000000CAA0BBB0BBC01CD010E94071EDC01D7
:10037000CB019C01AD01C701B6010E94BC1EDC018E
:10038000CB0120E030E040E05FE3BC01CD010E9402
:10039000EC1CDC01CB01BC01CD010E94D61DDC01AF
:1003A000CB019A8389838BE990E029813A81232FBD
:1003B0003327FC0120838AE990E02981FC01208316
:1003C0000F900F900F900F90DF91CF91FF90EF90D3
:1003D000DF90CF900895CF92DF92EF92FF92CF936C
:1003E000DF9300D000D0CDB7DEB79C838B8386E946
:1003F00090E0FC0180819181CC01A0E0B0E0BC01E3
:10040000CD010E94051EDC01CB0120E030E04FE76A
:1004100053E4BC01CD010E945D1DDC01CB016C01E8
:100420007D018B819C81092E000CAA0BBB0BBC01AA
:10043000CD010E94071EDC01CB019C01AD01C7016B
:10044000B6010E94BC1EDC01CB0120E030E040E0A0
:100450005FE3BC01CD010E94EC1CDC01CB01BC01BF
:10046000CD010E94D61DDC01CB019A8389838DE9E1
:1004700090E029813A81232F3327FC0120838CE9E6
:1004800090E02981FC0120830F900F900F900F9036
:10049000DF91CF91FF90EF90DF90CF900895CF93B1
:1004A000DF931F92CDB7DEB789838981082E000CB8
:1004B000990BAA0BBB0BBC01CD010E94071EDC01EE
:1004C000CB0120E030E044EB52E4BC01CD010E94BE
:1004D0005D1DDC01CB0126E636E646E351E4BC01B6
:1004E000CD010E94BC1EDC01CB019C01AD0160E08E
:1004F00070E08CE693E40E94EB1CDC01CB019C01D4
:10050000AD0160E070E08FE793E40E94EB1CDC013A
:10051000CB01BC01CD010E94CF1DDC01CB010E94AB
:1005200023010F90DF91CF910895CF93DF93CDB743
:10053000DEB7DF91CF910895CF93DF93CDB7DEB7CC
:1005400068970FB6F894DEBF0FBECDBF8F8B688F54
:1005500081E48F878F89888B888D898B72C080E03A
:1005600090E0A8E4B2E489839A83AB83BC8320E063
:1005700030E44CE155E469817A818B819C810E9451
:10058000BC1EDC01CB018D839E83AF83B88720E046
:1005900030E040E85FE36D817E818F8198850E9425
:1005A000581D88232CF481E090E09A8789873FC00A
:1005B00020E03FEF4FE757E46D817E818F81988582
:1005C0000E94B71E18164CF520E030E040E251E4DE
:1005D00069817A818B819C810E94BC1EDC01CB01E8
:1005E000BC01CD010E94D61DDC01CB019A87898711
:1005F0000FC08AEF90E09C878B878B859C85019745
:10060000F1F79C878B8789859A8501979A878987D7
:1006100089859A85892B69F714C06D817E818F81C8
:1006200098850E94D61DDC01CB019A878987898530
:100630009A859E878D878D859E850197F1F79E8788
:100640008D87CE010F9664ED0E94590C882309F026
:1006500086CF68960FB6F894DEBF0FBECDBFDF9190
:10066000CF910895CF93DF93CDB7DEB768970FB6DC
:10067000F894DEBF0FBECDBF8F8B688F82E48F876B
:100680008F89888B888D898B72C080E090E0A8E488
:10069000B2E489839A83AB83BC8320E030E44CE1ED
:1006A00055E469817A818B819C810E94BC1EDC01AA
:1006B000CB018D839E83AF83B88720E030E040E894
:1006C0005FE36D817E818F8198850E94581D88230C
:1006D0002CF481E090E09A8789873FC020E03FEFCB
:1006E0004FE757E46D817E818F8198850E94B71E08
:1006F00018164CF520E030E040E251E469817A813F
:100700008B819C810E94BC1EDC01CB01BC01CD0110
:100710000E94D61DDC01CB019A8789870FC08AEF22
:1007200090E09C878B878B859C850197F1F79C8750
:100730008B8789859A8501979A87898789859A8584
:10074000892B69F714C06D817E818F8198850E9405
:10075000D61DDC01CB019A87898789859A859E877A
:100760008D878D859E850197F1F79E878D87CE01B8
:100770000F9664ED0E94590C882309F086CF689685
:100780000FB6F894DEBF0FBECDBFDF91CF910895B5
:10079000CF93DF93CDB7DEB768970FB6F894DEBF7F
:1007A0000FBECDBF8F8B688F83E48F878F89888B37
:1007B000888D898B72C080E090E0A8E4B2E48983E0
:1007C0009A83AB83BC8320E030E44CE155E469813B
:1007D0007A818B819C810E94BC1EDC01CB018D83C0
:1007E0009E83AF83B88720E030E040E85FE36D810F
:1007F0007E818F8198850E94581D88232CF481E08A
:1008000090E09A8789873FC020E03FEF4FE757E4A9
:100810006D817E818F8198850E94B71E18164CF5D8
:1008200020E030E040E251E469817A818B819C8153
:100830000E94BC1EDC01CB01BC01CD010E94D61D73
:10084000DC01CB019A8789870FC08AEF90E09C87F3
:100850008B878B859C850197F1F79C878B87898592
:100860009A8501979A87898789859A85892B69F75F
:1008700014C06D817E818F8198850E94D61DDC0118
:10088000CB019A87898789859A859E878D878D85F3
:100890009E850197F1F79E878D87CE010F9664EDB7
:1008A0000E94590C882309F086CF68960FB6F894F9
:1008B000DEBF0FBECDBFDF91CF910895CF93DF9301
:1008C0001F92CDB7DEB789838981882349F460E020
:1008D00083E00E94420E60E082E00E94420E08C067
:1008E00061E083E00E94420E61E082E00E94420EDD
:1008F0000F90DF91CF910895CF93DF931F92CDB7E3
:10090000DEB789838981882329F460E081E00E9431
:10091000420E04C061E081E00E94420E0F90DF9120
:10092000CF9108950F931F93CF93DF93CDB7DEB789
:10093000C056D1090FB6F894DEBF0FBECDBF61E03F
:1009400080E00E94420E80E090E0A0E8BFE389834F
:100950009A83AB83BC8325E535E545E550E46981A1
:100960007A818B819C810E94BC1EDC01CB018D832E
:100970009E83AF83B88720E030E040E250E4698195
:100980007A818B819C810E94BC1EDC01CB0189870E
:100990009A87AB87BC8720E030E040E85FE36D8159
:1009A0007E818F8198850E94581D88231CF481E0E8
:1009B0008D87B2C020E03FEF4FE757E469857A8525
:1009C0008B859C850E94B71E18160CF07BC020E01A
:1009D00030E04AE754E469817A818B819C810E94EE
:1009E0005D1DDC01CB018E879F87A88BB98B20E032
:1009F00030E44CE155E46E857F85888999890E94B1
:100A0000BC1EDC01CB018A8B9B8BAC8BBD8B20E0A9
:100A100030E040E85FE36A897B898C899D890E9488
:100A2000581D88232CF481E090E09F8B8E8B3FC073
:100A300020E03FEF4FE757E46A897B898C899D89E5
:100A40000E94B71E18164CF520E030E040E251E459
:100A50006E857F85888999890E94BC1EDC01CB0147
:100A6000BC01CD010E94D61DDC01CB019F8B8E8B7A
:100A70000FC08AEF90E0998F888F888D998D0197AC
:100A8000F1F7998F888F8E899F8901979F8B8E8B25
:100A90008E899F89892B69F73FC06A897B898C89F8
:100AA0009D890E94D61DDC01CB019F8B8E8B8E8988
:100AB0009F899B8F8A8F8A8D9B8D0197F1F79B8FE2
:100AC0008A8F2AC020E030E04FE753E46D817E81B9
:100AD0008F8198850E94B71E1816ACF469857A85B7
:100AE0008B859C850E94D61DDC01CB019D8F8C8F50
:100AF0008C8D9D8D9F8F8E8F8E8D9F8D0197F1F7A1
:100B00009F8F8E8F0FC06D817E818F8198850E940F
:100B1000D61DDC01CB018D878D8588A388A18A95A0
:100B2000F1F788A360E080E00E94420E80E090E050
:100B3000A0E4B1E489A39AA3ABA3BCA325E535E562
:100B400045E550E469A17AA18BA19CA10E94BC1E3D
:100B5000DC01CB018DA39EA3AFA3B8A720E030E0BA
:100B600040E250E469A17AA18BA19CA10E94BC1E25
:100B7000DC01CB0189A79AA7ABA7BCA720E030E096
:100B800040E85FE36DA17EA18FA198A50E94581D4A
:100B900088231CF481E08DA7B2C020E03FEF4FE72F
:100BA00057E469A57AA58BA59CA50E94B71E1816C7
:100BB0000CF07BC020E030E04AE754E469A17AA160
:100BC0008BA19CA10E945D1DDC01CB018EA79FA77C
:100BD000A8ABB9AB20E030E44CE155E46EA57FA5AD
:100BE00088A999A90E94BC1EDC01CB018AAB9BABF2
:100BF000ACABBDAB20E030E040E85FE36AA97BA985
:100C00008CA99DA90E94581D88232CF481E090E0B6
:100C10009FAB8EAB3FC020E03FEF4FE757E46AA9A0
:100C20007BA98CA99DA90E94B71E18164CF520E03F
:100C300030E040E251E46EA57FA588A999A90E9401
:100C4000BC1EDC01CB01BC01CD010E94D61DDC0124
:100C5000CB019FAB8EAB0FC08AEF90E099AF88AF0E
:100C600088AD99AD0197F1F799AF88AF8EA99FA98B
:100C700001979FAB8EAB8EA99FA9892B69F73FC0C7
:100C80006AA97BA98CA99DA90E94D61DDC01CB0174
:100C90009FAB8EAB8EA99FA99BAF8AAF8AAD9BAD50
:100CA0000197F1F79BAF8AAF2AC020E030E04FE711
:100CB00053E46DA17EA18FA198A50E94B71E1816BE
:100CC000ACF469A57AA58BA59CA50E94D61DDC0174
:100CD000CB019DAF8CAF8CAD9DAD9FAF8EAF8EAD78
:100CE0009FAD0197F1F79FAF8EAF1CC06DA17EA1A4
:100CF0008FA198A50E94D61DDC01CB018DA72DA543
:100D0000CE01805C9F4FFC012083CE01805C9F4F11
:100D1000FC018081282F2A95F1F7CE01805C9F4F3E
:100D2000FC01208361E080E00E94420E9E012F5B67
:100D30003F4F80E090E0A0E8BFE3F901808391831A
:100D4000A283B3838E010B5B1F4FCE018F5B9F4F3E
:100D500025E535E545E550E4FC016081718182813E
:100D600093810E94BC1EDC01CB01F801808391833A
:100D7000A283B3838E01075B1F4FCE018F5B9F4F12
:100D800020E030E040E250E4FC016081718182812A
:100D900093810E94BC1EDC01CB01F801808391830A
:100DA000A283B383CE018B5B9F4F20E030E040E80D
:100DB0005FE3FC0160817181828193810E94581DF3
:100DC00088233CF4CE01835B9F4F21E0FC0120830C
:100DD00030C1CE01875B9F4F20E03FEF4FE757E4E4
:100DE000FC0160817181828193810E94B71E181677
:100DF0000CF0D1C0CE018F5B9F4F20E030E04AE77E
:100E000054E4FC0160817181828193810E945D1DA7
:100E1000DC01CB019E01225B3F4FF901808391836E
:100E2000A283B3838E010E5A1F4FCE01825B9F4F68
:100E300020E030E44CE155E4FC0160817181828165
:100E400093810E94BC1EDC01CB01F8018083918359
:100E5000A283B383CE018E5A9F4F20E030E040E85A
:100E60005FE3FC0160817181828193810E94581D42
:100E700088234CF4CE018A5A9F4F21E030E0FC01D8
:100E8000318320836DC0CE018E5A9F4F20E03FEF0B
:100E90004FE757E4FC0160817181828193810E9458
:100EA000B71E18160CF04AC0CE01825B9F4F20E09F
:100EB00030E040E251E4FC016081718182819381E4
:100EC0000E94BC1EDC01CB018E010A5A1F4FBC01DF
:100ED000CD010E94D61DDC01CB01F80191838083F6
:100EE00024C0CE01885A9F4F2AEF30E0FC013183A5
:100EF0002083CE01885A9F4FFC0180819181019708
:100F0000F1F79E01285A3F4FF90191838083CE016A
:100F10008A5A9F4F9E012A5A3F4FF9012081318101
:100F200021503109FC0131832083CE018A5A9F4F21
:100F3000FC0180819181892BA1F67BC08E010A5A28
:100F40001F4FCE018E5A9F4FFC01608171818281BB
:100F500093810E94D61DDC01CB01F801918380832F
:100F6000CE01865A9F4F9E012A5A3F4FF901208198
:100F70003181FC0131832083CE01865A9F4FFC01D1
:100F8000808191810197F1F79E01265A3F4FF90127
:100F9000918380834EC0CE018B5B9F4F20E030E079
:100FA0004FE753E4FC0160817181828193810E944B
:100FB000B71E18166CF58E01045A1F4FCE01875BC1
:100FC0009F4FFC0160817181828193810E94D61DB7
:100FD000DC01CB01F80191838083CE01825A9F4FBF
:100FE0009E01245A3F4FF90120813181FC01318358
:100FF0002083CE01825A9F4FFC018081918101970D
:10100000F1F79E01225A3F4FF9019183808328C056
:101010008E01035B1F4FCE018B5B9F4FFC016081F4
:101020007181828193810E94D61DDC01CB01F80180
:101030008083CE01805A9F4F9E01235B3F4FF90171
:101040002081FC012083CE01805A9F4FFC018081CA
:10105000282F2A95F1F7CE01805A9F4FFC0120835B
:10106000C05ADF4F0FB6F894DEBF0FBECDBFDF9181
:10107000CF911F910F910895CF93DF93CDB7DEB736
:1010800028970FB6F894DEBF0FBECDBF0E94920422
:101090002FC08091420190914301A0914401B091F1
:1010A00045010196A11DB11D80934201909343011A
:1010B000A0934401B093450184E19FE8A3E0B0E030
:1010C00089839A83AB83BC83209142013091430191
:1010D000409144015091450189819A81AB81BC8145
:1010E00082179307A407B50718F48FEF9FEF87C007
:1010F00080E00E94EE0E882361F282EB90E0FC011A
:10110000108280EB90E020EB30E0F901208121603B
:10111000FC01208380E790E020E730E0F9012081A6
:101120002160FC01208310923E0110923F01109239
:10113000400110924101789423C020913E013091EA
:101140003F0140914001509141018FEF9FEFDC0141
:101150000E94D11C9B01AC0182EB90E0FC018081DC
:10116000882F90E0A0E0B0E0820F931FA41FB51F6E
:1011700085319F48A340B10518F08EEF9FEF3FC027
:1011800080E00E94EE0E8823C1F680EB90E0FC0127
:101190001082F89420913E0130913F01409140012E
:1011A000509141018FEF9FEFDC010E94D11C9B0108
:1011B000AC0182EB90E0FC018081882F90E0A0E000
:1011C000B0E0820F931FA41FB51F80934601909338
:1011D0004701A0934801B093490180914601909145
:1011E0004701A0914801B091490124E432E040E078
:1011F00050E0BC01CD010E94AF1CDA01C901289664
:101200000FB6F894DEBF0FBECDBFDF91CF9108952A
:10121000CF93DF93CDB7DEB72B970FB6F894DEBF31
:101220000FBECDBF19821A8281E08B831E821D8280
:1012300018861F821A861986CE0105960E945213BF
:101240008B81082E000C990B8130910521F00297BB
:1012500009F43FC07FC08A81898338C040E050E0F4
:101260008981282F30E06BE0629FC001639F900D61
:101270001124875E9E4FDC01EC918981282F30E09C
:101280006BE0629FC001639F900D1124885E9E4FAA
:10129000DC017C918981282F30E06BE0629FC001E6
:1012A000639F900D11248F5E9E4F9A014E2F672FE2
:1012B0000E9494128C838C81813009F40AC0898148
:1012C000813009F4FFCF89818F5F898389818823E9
:1012D00029F28A8189833BC040E050E08981282F30
:1012E00030E06BE0629FC001639F900D11248C5D24
:1012F0009E4FDC01EC918981282F30E06BE0629FEA
:10130000C001639F900D11248D5D9E4FDC017C9187
:101310008981282F30E06BE0629FC001639F900DB0
:101320001124845E9E4F9A014E2F672F0E949412C3
:101330008C838C81813009F40DC08981813021F446
:1013400083E50E945311FFCF89818F5F8983898153
:10135000882311F275CF1F920F9200905F000F92B9
:10136000112400905B000F922F933F934F935F9354
:101370008F939F93EF93FF93CF93DF9300D000D091
:10138000CDB7DEB78DEE90E0FC0180818B831982B2
:10139000A4C08DEE90E029812295207FFC0120835E
:1013A0008EEE90E0FC018081829586958770882F73
:1013B00090E081709927892B09F470C08FEE90E03E
:1013C00020E8FC0120838EEE90E02EEE30E0F90163
:1013D00020812F7DFC01208382EF90E0FC01808141
:1013E000829586958770282F83EF90E0FC0180819D
:1013F000882F90E0880F991F880F991F880F991FD9
:10140000822B8C831A8226C08C81882F90E0815099
:101410009048880F991F865B9E4FFC012081318187
:101420008C81882F90E00197825A9E4FFC01808129
:10143000482F50E08A81882F90E0840F951F820FFB
:10144000931F2AEF30E0F9012081FC0120838A817B
:101450008F5F8A838A818830B8F28C81882F90E0F0
:101460000197825A9E4FFC0120812F5FFC0120834F
:10147000253041F48C81882F90E00197825A9E4F4D
:10148000FC0110828C81882F90E001978E589E4F2E
:10149000FC0120812F5FFC01208323C08EEE90E0B1
:1014A000FC0180818295869586958370882F90E0D7
:1014B00081709927892B71F08FEE90E0FC011082EA
:1014C0008EEE90E02EEE30E0F90120812F7BFC01C2
:1014D000208307C089818F5F898389818F3008F4D9
:1014E00058CF8DEE90E02B81FC0120830F900F9060
:1014F0000F900F90DF91CF91FF91EF919F918F917E
:101500005F914F913F912F910F9000925B000F9050
:1015100000925F000F901F901895CF93DF9300D03B
:10152000CDB7DEB788ED90E021E0FC012083198281
:101530003EC08DEE90E029812295207FFC01208322
:101540008EEE90E0FC0110828FEE90E0FC011082A4
:1015500083EF90E0FC01108282EF90E0FC011082AA
:1015600081EF90E0FC01108280EF90E0FC0110829E
:1015700087EF90E0FC01108286EF90E0FC01108282
:1015800085EF90E0FC01108284EF90E0FC01108276
:101590001A8207C08AEF90E0FC0110828A818F5F77
:1015A0008A838A818830B0F389818F5F89838981BA
:1015B0008F3008F4BECF88ED90E022E0FC0120835C
:1015C00082EE90E021E0FC01208383EE90E028E0B1
:1015D000FC01208384EE90E02EE5FC01208385EE63
:1015E00090E0FC0110828BED90E020EBFC01208369
:1015F0008FED90E02FE7FC0120838EED90E02FEF40
:10160000FC01208378940F900F90DF91CF91089583
:10161000CF93DF9300D000D0CDB7DEB79C838B8310
:101620008DEE90E0FC0180818A83000089ED90E0DE
:10163000FC01808182958F70882F90E081709927BE
:10164000892BA1F789ED90E0FC0180818695869534
:101650008695882F90E081709927892B39F7198218
:1016600049C08DEE90E029812295207FFC012083E6
:101670008FEE90E0FC01808182958695869583703F
:10168000882321F089818F5F898334C08FEE90E0B9
:101690002FE0FC01208383EF90E02B813C813327F6
:1016A000369527953695279536952795FC01208305
:1016B00082EF90E02B812295220F207EFC01208377
:1016C00086EF90E020EEFC01208387EF90E02FEF83
:1016D000FC0120838FEE90E02FEE30E0F9012081B5
:1016E0002068FC0120838DEE90E02A81FC0120839C
:1016F00081E00AC089818F3008F4B3CF8DEE90E08D
:101700002A81FC01208380E00F900F900F900F90B2
:10171000DF91CF9108950F931F93CF93DF9300D064
:10172000CDB7DEB78A830E948D0A198230C08981C5
:10173000882F90E001960E94080B8981882F90E005
:10174000880F991F8C01065B1E4F61E070E085E0F9
:1017500090E00E94291FF801918380838981882F5E
:1017600090E02981222F30E04981442F50E060E051
:101770004E585E4FFA01608328593E4FF90160834D
:10178000825A9E4FFC01608389818F5F8983998192
:101790008A81981760F20F900F90DF91CF911F917F
:1017A0000F910895CF93DF931F92CDB7DEB7898352
:1017B0008981882F90E001978E589E4FFC0180818F
:1017C0000F90DF91CF910895CF93DF9300D000D099
:1017D000CDB7DEB79B838A836C8384E390E02FEFE1
:1017E000FC01208300008C81882F90E001978E58A7
:1017F0009E4FFC0180818823B1F319822CC089811E
:10180000882F90E02A813B81820F931F2C81222F09
:1018100030E021503048220F331F265B3E4FF90144
:10182000408151812C81222F30E0215031092859EB
:101830003E4FF9012081622F70E02981222F30E094
:10184000260F371F240F351FF9012081FC0120834B
:1018500089818F5F89838981883088F28C81882F84
:1018600090E0019788599E4FFC0120812F5FFC0179
:101870002083253041F48C81882F90E0019788598E
:101880009E4FFC0110828C81882F90E001979C0173
:101890002E583E4FF901208121508E589E4FFC0159
:1018A000208380E00F900F900F900F90DF91CF91E9
:1018B0000895CF93DF9300D000D000D0CDB7DEB72E
:1018C0009D838C836E83000089ED90E0FC01808114
:1018D00082958F70882F90E081709927892BA1F7CE
:1018E00089ED90E0FC018081869586958695882F0C
:1018F00090E081709927892B39F78DEE90E0FC01FB
:1019000080818B831A8215C08DEE90E02A8122950A
:10191000207FFC0120838FEE90E0FC018081829586
:10192000869586958370882309F406C08A818F5F27
:101930008A838A818F3040F38A818F3011F48FEF50
:1019400039C082EF90E02E812295220F207EFC018B
:10195000208383EF90E02E81269526952695FC0125
:1019600020838FEE90E028E0FC012083198210C0D4
:101970008AEF90E02981222F30E04C815D81240F95
:10198000351FF9012081FC01208389818F5F8983C4
:101990008981883068F38FEE90E02FEE30E0F90116
:1019A00020812064FC0120838DEE90E02B81FC01DE
:1019B000208380E026960FB6F894DEBF0FBECDBF21
:1019C000DF91CF910895CF93DF9300D000D000D066
:1019D000CDB7DEB79A8389837C836B835E834D8327
:1019E0008D819E8129813A81FC0131832083898107
:1019F0009A812D813E81FC013383228389819A81E2
:101A00002B813C81FC01318320838B819C81298146
:101A10003A81FC013383228326960FB6F894DEBF09
:101A20000FBECDBFDF91CF910895CF93DF9300D04C
:101A300000D0CDB7DEB79A8389837C836B838B819B
:101A40009C81FC01428153812B813C8189819A8157
:101A5000B9010E94E30C0F900F900F900F90DF914F
:101A6000CF910895CF93DF93CDB7DEB72B970FB605
:101A7000F894DEBF0FBECDBF89876A874B87809100
:101A80000801909109019C838B838B819C8106972F
:101A90009A83898315C089819A81FC019081898507
:101AA000981711F481E0E5C089819A81FC01808555
:101AB00091859E838D838D819E8106979A838983EC
:101AC00089819A8106968650914029F78985869565
:101AD000869586958F5F8F838985877088878A85AD
:101AE000813009F055C08F81882F90E09C012150F2
:101AF0003109C901880F991F820F931F8196AC018C
:101B00008F81882F90E09C0121503109C901880FF5
:101B1000991F820F931F8196FC018081682F888511
:101B2000282F30E081E090E002C0880F991F2A95AD
:101B3000E2F7862BFA0180838F81882F90E09C0149
:101B400021503109C901880F991F820F931F829676
:101B5000AC018F81882F90E09C0121503109C9018F
:101B6000880F991F820F931F8296FC018081682F36
:101B70008885282F30E081E090E002C0880F991F0F
:101B80002A95E2F780958623FA01808380E071C070
:101B90008F81882F90E09C0121503109C901880F65
:101BA000991F820F931F8196AC018F81882F90E03F
:101BB0009C0121503109C901880F991F820F931F81
:101BC0008196FC018081682F8885282F30E081E094
:101BD00090E002C0880F991F2A95E2F7809586232E
:101BE000FA0180838F81882F90E09C012150310978
:101BF000C901880F991F820F931F8296AC018F81B4
:101C0000882F90E09C0121503109C901880F991F4C
:101C1000820F931F8296FC018081682F8885282F70
:101C200030E081E090E002C0880F991F2A95E2F72A
:101C3000862BFA0180838AE090E00E94451F9A83F8
:101C4000898389819A81892B11F481E012C089816D
:101C50009A812985FC01208389819A812B85FC0149
:101C6000218389819A81069666E071E00E94150DB4
:101C700080E02B960FB6F894DEBF0FBECDBFDF918C
:101C8000CF910895CF93DF9300D000D0CDB7DEB7CA
:101C90008B836C838B818695869586958F5F8983F0
:101CA0008B8187708B838981882F90E09C012150E4
:101CB0003109C901880F991F820F931F8296FC0179
:101CC00080819181A281B3818A838C81882331F1C3
:101CD0008981882F90E09C0121503109C901880F2A
:101CE000991F820F931F8296AC018A81282F30E0C2
:101CF0008B81682F70E081E090E002C0880F991F0F
:101D00006A95E2F7822B932B092E000CAA0BBB0BD2
:101D1000FA0180839183A283B38327C08981882FAE
:101D200090E09C0121503109C901880F991F820F51
:101D3000931F8296AC018A81282F30E08B81682F17
:101D400070E081E090E002C0880F991F6A95E2F789
:101D50008095909582239323092E000CAA0BBB0B30
:101D6000FA0180839183A283B38380E00F900F9068
:101D70000F900F90DF91CF910895CF93DF9300D014
:101D80001F92CDB7DEB78B838B818695869586951E
:101D90008F5F89838B8187708B838981882F90E007
:101DA0009C0121503109C901880F991F820F931F8F
:101DB0008096FC0180818A838A81882F90E02B8124
:101DC000222F30E002C0959587952A95E2F7817021
:101DD0000F900F900F90DF91CF910895CF93DF93E5
:101DE000CDB7DEB729970FB6F894DEBF0FBECDBFD3
:101DF000898780910801909109019D838C838C8152
:101E00009D8106979A83898355C089819A81FC01B7
:101E100090818985981709F041C01B821FC08B8172
:101E2000882F90E029813A81820F931F0296FC014E
:101E300040818B81882F90E0019629813A81820F21
:101E4000931F0296FC018081481729F089819A81AD
:101E5000FC01858137C08B818F5F8B838B818230C2
:101E6000F0F289819A81FC01918181E089278823A0
:101E700029F089819A81FC01828108C089819A8137
:101E8000FC01928181E0992309F080E088878981B3
:101E90009A812885FC012583888514C089819A81CF
:101EA000FC01808591859F838E838E819F8106971B
:101EB0009A83898389819A8106968650914009F098
:101EC000A4CF81E029960FB6F894DEBF0FBECDBF38
:101ED000DF91CF9108950F931F93CF93DF9300D09D
:101EE00000D000D0CDB7DEB78091080190910901F4
:101EF0009C838B838B819C8106979A8389831EC0E8
:101F000000917E0110917F0189819A81FC0180817D
:101F10000E94BD0E282F89819A81800F911F029601
:101F2000FC01208389819A81FC01808591859E83B3
:101F30008D838D819E8106979A83898389819A8179
:101F4000069686509140E1F680917E0190917F0146
:101F5000019690937F0180937E01039721F4109264
:101F60007F0110927E0126960FB6F894DEBF0FBE59
:101F7000CDBFDF91CF911F910F910895CF93DF9344
:101F8000CDB7DEB767970FB6F894DEBF0FBECDBFF3
:101F90008F8B809180019F89981709F482C086E514
:101FA0008F878F89888B72C080E090E0A8E4B2E4CC
:101FB00089839A83AB83BC8320E030E44CE155E411
:101FC00069817A818B819C810E94BC1EDC01CB01DE
:101FD0008D839E83AF83B88720E030E040E85FE3E5
:101FE0006D817E818F8198850E94581D88232CF4F5
:101FF00081E090E09A8789873FC020E03FEF4FE77C
:1020000057E46D817E818F8198850E94B71E1816D6
:102010004CF520E030E040E251E469817A818B8127
:102020009C810E94BC1EDC01CB01BC01CD010E9441
:10203000D61DDC01CB019A8789870FC08AEF90E01B
:102040009C878B878B859C850197F1F79C878B8775
:1020500089859A8501979A87898789859A85892BA9
:1020600069F714C06D817E818F8198850E94D61D8D
:10207000DC01CB019A87898789859A859E878D8720
:102080008D859E850197F1F79E878D87CE010F96EE
:1020900063EC0E94590C882309F086CF8F898093C6
:1020A000800167960FB6F894DEBF0FBECDBFDF91FB
:1020B000CF910895CF93DF93CDB7DEB766970FB674
:1020C000F894DEBF0FBECDBF80E58F8772C080E081
:1020D00090E0A8E4B2E489839A83AB83BC8320E0D8
:1020E00030E44CE155E469817A818B819C810E94C6
:1020F000BC1EDC01CB018D839E83AF83B88720E0BB
:1021000030E040E85FE36D817E818F8198850E9499
:10211000581D88232CF481E090E09A8789873FC07E
:1021200020E03FEF4FE757E46D817E818F819885F6
:102130000E94B71E18164CF520E030E040E251E452
:1021400069817A818B819C810E94BC1EDC01CB015C
:10215000BC01CD010E94D61DDC01CB019A87898785
:102160000FC08AEF90E09C878B878B859C850197B9
:10217000F1F79C878B8789859A8501979A8789874C
:1021800089859A85892B69F714C06D817E818F813D
:1021900098850E94D61DDC01CB019A8789878985A5
:1021A0009A859E878D878D859E850197F1F79E87FD
:1021B0008D87CE010F9663EC0E94590C882309F09D
:1021C00086CFCE010F9661E00E94E40B8F8580934D
:1021D00010018889882F90E0382F22278989882F3D
:1021E00090E0822B932B90930B0180930A018A89B4
:1021F000882F90E0382F22278B89882F90E0822B20
:10220000932B90930D0180930C018C89882F90E083
:10221000382F22278D89882F90E0822B932B909343
:102220000F0180930E0166960FB6F894DEBF0FBEC5
:10223000CDBFDF91CF910895CF93DF9300D000D031
:1022400000D0CDB7DEB79E838D830E949216DC014D
:10225000CB0189839A83AB83BC830E945A108D8102
:102260009E81892B71F089819A81AB81BC812D81FE
:102270003E81BC01CD01F9010995813011F481E065
:1022800009C0809110018D3441F380911001823595
:1022900021F380E026960FB6F894DEBF0FBECDBFC7
:1022A000DF91CF910895CF93DF93CDB7DEB76797D6
:1022B0000FB6F894DEBF0FBECDBF8F8B8F898F878F
:1022C00072C080E090E0A8E4B2E489839A83AB8393
:1022D000BC8320E030E44CE155E469817A818B8154
:1022E0009C810E94BC1EDC01CB018D839E83AF8349
:1022F000B88720E030E040E85FE36D817E818F8128
:1023000098850E94581D88232CF481E090E09A87DC
:1023100089873FC020E03FEF4FE757E46D817E8122
:102320008F8198850E94B71E18164CF520E030E08A
:1023300040E251E469817A818B819C810E94BC1EBC
:10234000DC01CB01BC01CD010E94D61DDC01CB011B
:102350009A8789870FC08AEF90E09C878B878B854F
:102360009C850197F1F79C878B8789859A850197D2
:102370009A87898789859A85892B69F714C06D8129
:102380007E818F8198850E94D61DDC01CB019A87C2
:10239000898789859A859E878D878D859E850197FA
:1023A000F1F79E878D87CE010F9663EC0E94590C42
:1023B000882309F086CF0E945A10809110018D3435
:1023C00009F47CCF80911001823509F477CF6796AC
:1023D0000FB6F894DEBF0FBECDBFDF91CF91089549
:1023E000CF93DF93CDB7DEB76B970FB6F894DEBF10
:1023F0000FBECDBF988F8F8B698F5B8F4A8F898D72
:102400000E94BE0F84E48F878F89988D892F990F42
:10241000990B888B8F89898B72C080E090E0A8E44B
:10242000B2E489839A83AB83BC8320E030E44CE13F
:1024300055E469817A818B819C810E94BC1EDC01FC
:10244000CB018D839E83AF83B88720E030E040E8E6
:102450005FE36D817E818F8198850E94581D88235E
:102460002CF481E090E09A8789873FC020E03FEF1D
:102470004FE757E46D817E818F8198850E94B71E5A
:1024800018164CF520E030E040E251E469817A8191
:102490008B819C810E94BC1EDC01CB01BC01CD0163
:1024A0000E94D61DDC01CB019A8789870FC08AEF75
:1024B00090E09C878B878B859C850197F1F79C87A3
:1024C0008B8789859A8501979A87898789859A85D7
:1024D000892B69F714C06D817E818F8198850E9458
:1024E000D61DDC01CB019A87898789859A859E87CD
:1024F0008D878D859E850197F1F79E878D87CE010B
:102500000F9663EC0E94590C882309F086CF8A8DC0
:102510009B8D0E941C116B960FB6F894DEBF0FBE08
:10252000CDBFDF91CF910895CF93DF93CDB7DEB7C5
:102530006C970FB6F894DEBF0FBECDBF988F8F8B10
:10254000698F4A8F3C8F2B8F898D0E94BE0F87E445
:102550008F878F89988DFC0180819181892F990FB8
:10256000990B888B8F89988DFC0180819181898B53
:102570008F89988DFC0182819381892F990F990B06
:102580008A8B8F89988DFC01828193818B8B1C8A29
:102590008A8D8D8B72C080E090E0A8E4B2E48983DC
:1025A0009A83AB83BC8320E030E44CE155E469813D
:1025B0007A818B819C810E94BC1EDC01CB018D83C2
:1025C0009E83AF83B88720E030E040E85FE36D8111
:1025D0007E818F8198850E94581D88232CF481E08C
:1025E00090E09A8789873FC020E03FEF4FE757E4AC
:1025F0006D817E818F8198850E94B71E18164CF5DB
:1026000020E030E040E251E469817A818B819C8155
:102610000E94BC1EDC01CB01BC01CD010E94D61D75
:10262000DC01CB019A8789870FC08AEF90E09C87F5
:102630008B878B859C850197F1F79C878B87898594
:102640009A8501979A87898789859A85892B69F761
:1026500014C06D817E818F8198850E94D61DDC011A
:10266000CB019A87898789859A859E878D878D85F5
:102670009E850197F1F79E878D87CE010F9663ECBB
:102680000E94590C882309F086CF8B8D9C8D0E9467
:102690001C116C960FB6F894DEBF0FBECDBFDF9154
:1026A000CF910895CF93DF93CDB7DEB768970FB67C
:1026B000F894DEBF0FBECDBF988F8F8B89E48F87D4
:1026C0008F89988DFC0180819181892F990F990BB9
:1026D000888B8F89988DFC0180819181898B8F896E
:1026E000988DFC0182819381892F990F990B8A8B98
:1026F0008F89988DFC01828193818B8B1C8A8F89B5
:10270000988DFC01848195818D8B8F89988DFC013A
:102710008081918190930B0180930A018F89988D1C
:10272000FC018281938190930D0180930C018F892C
:10273000988DFC018481958190930F0180930E0107
:1027400072C080E090E0A8E4B2E489839A83AB830E
:10275000BC8320E030E44CE155E469817A818B81CF
:102760009C810E94BC1EDC01CB018D839E83AF83C4
:10277000B88720E030E040E85FE36D817E818F81A3
:1027800098850E94581D88232CF481E090E09A8758
:1027900089873FC020E03FEF4FE757E46D817E819E
:1027A0008F8198850E94B71E18164CF520E030E006
:1027B00040E251E469817A818B819C810E94BC1E38
:1027C000DC01CB01BC01CD010E94D61DDC01CB0197
:1027D0009A8789870FC08AEF90E09C878B878B85CB
:1027E0009C850197F1F79C878B8789859A8501974E
:1027F0009A87898789859A85892B69F714C06D81A5
:102800007E818F8198850E94D61DDC01CB019A873D
:10281000898789859A859E878D878D859E85019775
:10282000F1F79E878D87CE010F9663EC0E94590CBD
:10283000882309F086CF68960FB6F894DEBF0FBEE6
:10284000CDBFDF91CF910895CF93DF93CDB7DEB7A2
:102850006B970FB6F894DEBF0FBECDBF988F8F8BEE
:10286000698F5B8F4A8F898D0E94BE0F84E58F87A9
:102870008F89988D892F9927888B8F89898B72C032
:1028800080E090E0A8E4B2E489839A83AB83BC83C0
:1028900020E030E44CE155E469817A818B819C81B0
:1028A0000E94BC1EDC01CB018D839E83AF83B88761
:1028B00020E030E040E85FE36D817E818F81988584
:1028C0000E94581D88232CF481E090E09A87898724
:1028D0003FC020E03FEF4FE757E46D817E818F815D
:1028E00098850E94B71E18164CF520E030E040E2B3
:1028F00051E469817A818B819C810E94BC1EDC013C
:10290000CB01BC01CD010E94D61DDC01CB019A8711
:1029100089870FC08AEF90E09C878B878B859C8589
:102920000197F1F79C878B8789859A8501979A870C
:10293000898789859A85892B69F714C06D817E8185
:102940008F8198850E94D61DDC01CB019A878987EB
:1029500089859A859E878D878D859E850197F1F75C
:102960009E878D87CE010F9663EC0E94590C8823B9
:1029700009F086CF8A8D9B8D0E941C116B960FB635
:10298000F894DEBF0FBECDBFDF91CF910895CF93F6
:10299000DF93CDB7DEB76B970FB6F894DEBF0FBEEF
:1029A000CDBF988F8F8B698F5B8F4A8F898D0E94E7
:1029B000BE0F81E48F878F89988D892F9927888B07
:1029C0008F89898B72C080E090E0A8E4B2E48983AB
:1029D0009A83AB83BC8320E030E44CE155E4698109
:1029E0007A818B819C810E94BC1EDC01CB018D838E
:1029F0009E83AF83B88720E030E040E85FE36D81DD
:102A00007E818F8198850E94581D88232CF481E057
:102A100090E09A8789873FC020E03FEF4FE757E477
:102A20006D817E818F8198850E94B71E18164CF5A6
:102A300020E030E040E251E469817A818B819C8121
:102A40000E94BC1EDC01CB01BC01CD010E94D61D41
:102A5000DC01CB019A8789870FC08AEF90E09C87C1
:102A60008B878B859C850197F1F79C878B87898560
:102A70009A8501979A87898789859A85892B69F72D
:102A800014C06D817E818F8198850E94D61DDC01E6
:102A9000CB019A87898789859A859E878D878D85C1
:102AA0009E850197F1F79E878D87CE010F9663EC87
:102AB0000E94590C882309F086CF8A8D9B8D0E9435
:102AC0001C116B960FB6F894DEBF0FBECDBFDF9121
:102AD000CF910895CF93DF93CDB7DEB780911001EA
:102AE000DF91CF910895CF93DF93CDB7DEB780917B
:102AF0000A0190910B01DF91CF910895CF93DF935D
:102B0000CDB7DEB780910C0190910D01DF91CF918F
:102B10000895CF93DF93CDB7DEB780910E019091EA
:102B20000F01DF91CF910895CF93DF9300D0CDB700
:102B3000DEB79A83898389819A81909387018093F4
:102B400086010F900F90DF91CF9108950F931F93FF
:102B5000CF93DF9300D0CDB7DEB79A83898380E827
:102B600090E0FC01108281E890E029E0FC012083E4
:102B700008E810E089819A81CC01A0E0B0E0BC01B6
:102B8000CD010E94051EDC01CB019C01AD0160E876
:102B900076E988E19BE40E945D1DDC01CB0120E029
:102BA00030E040E05FE3BC01CD010E94EC1CDC01A1
:102BB000CB01BC01CD010E94D61DDC01CB01F80187
:102BC000918380838FE690E022E0FC0120838FE5F3
:102BD00090E02FE530E0F90120812068FC0120839E
:102BE0000F900F90DF91CF911F910F9108951F9239
:102BF0000F9200905F000F92112400905B000F92E3
:102C00002F933F934F935F936F937F938F939F93F4
:102C1000AF93BF93EF93FF93CF93DF93CDB7DEB71F
:102C20008091860190918701892B31F080918601F6
:102C300090918701FC010995809181019091820119
:102C4000A0918301B091840180399F45A140B105D5
:102C500040F00E94A316882321F083E50E945311BF
:102C6000FFCF8091810190918201A0918301B09169
:102C700084010196A11DB11D809381019093820171
:102C8000A0938301B0938401DF91CF91FF91EF91E5
:102C9000BF91AF919F918F917F916F915F914F9174
:102CA0003F912F910F9000925B000F9000925F0078
:102CB0000F901F901895CF93DF93CDB7DEB789E2C1
:102CC0000E94EE0E813011F481E001C080E0DF91BE
:102CD000CF910895CF93DF93CDB7DEB78AE20E94FC
:102CE000EE0E813011F481E001C080E0DF91CF91E0
:102CF0000895CF93DF93CDB7DEB710928101109284
:102D000082011092830110928401DF91CF91089586
:102D1000CF93DF93CDB7DEB781E080938501DF915C
:102D2000CF910895CF93DF93CDB7DEB78091810126
:102D300090918201A0918301B0918401BC01CD01E9
:102D4000DF91CF910895CF93DF93CDB7DEB7809118
:102D50008501DF91CF910895CF93DF93CDB7DEB793
:102D60008091970290919802DF91CF910895CF932F
:102D7000DF931F92CDB7DEB789838981882331F035
:102D800084E390E02FEFFC01208304C084E390E013
:102D9000FC0110820F90DF91CF910895CF93DF93C4
:102DA000CDB7DEB76C970FB6F894DEBF0FBECDBFC0
:102DB0008BE69FE00E94941580E090E0A8ECB2E4DE
:102DC00089839A83AB83BC8320E030E44CE155E4F3
:102DD00069817A818B819C810E94BC1EDC01CB01C0
:102DE0008D839E83AF83B88720E030E040E85FE3C7
:102DF0006D817E818F8198850E94581D88232CF4D7
:102E000081E090E09A8789873FC020E03FEF4FE75D
:102E100057E46D817E818F8198850E94B71E1816B8
:102E20004CF520E030E040E251E469817A818B8109
:102E30009C810E94BC1EDC01CB01BC01CD010E9423
:102E4000D61DDC01CB019A8789870FC08AEF90E0FD
:102E50009C878B878B859C850197F1F79C878B8757
:102E600089859A8501979A87898789859A85892B8B
:102E700069F714C06D817E818F8198850E94D61D6F
:102E8000DC01CB019A87898789859A859E878D8702
:102E90008D859E850197F1F79E878D8740E060E0E4
:102EA00088E20E94320D40E060E089E20E94320D2B
:102EB00040E060E08AE20E94320D40E061E083E0A1
:102EC0000E94320D40E061E082E00E94320D40E05D
:102ED00061E081E00E94320D40E061E080E00E940C
:102EE000320D83E390E02FEFFC01208381E00E940C
:102EF000B71682E390E00E94A60088EE93E00E945D
:102F0000A61581E00E948B0B0E949502000088E2CA
:102F10000E94EE0E8823D9F380E090E0A0E2B1E4B5
:102F20008F87988BA98BBA8B20E030E44CE155E475
:102F30006F85788989899A890E94BC1EDC01CB0142
:102F40008B8B9C8BAD8BBE8B20E030E040E85FE349
:102F50006B897C898D899E890E94581D88232CF459
:102F600081E090E0988F8F8B3FC020E03FEF4FE7EC
:102F700057E46B897C898D899E890E94B71E18163B
:102F80004CF520E030E040E251E46F857889898992
:102F90009A890E94BC1EDC01CB01BC01CD010E94BC
:102FA000D61DDC01CB01988F8F8B0FC08AEF90E08C
:102FB0009A8F898F898D9A8D0197F1F79A8F898FD2
:102FC0008F89988D0197988F8F8B8F89988D892BFA
:102FD00069F714C06B897C898D899E890E94D61DF2
:102FE000DC01CB01988F8F8B8F89988D9C8F8B8F75
:102FF0008B8D9C8D0197F1F79C8F8B8F80E00E94C9
:10300000B7160E9479160E9488166C960FB6F8942F
:10301000DEBF0FBECDBFDF91CF910895CF93DF9379
:10302000CDB7DEB727970FB6F894DEBF0FBECDBF82
:103030006B837C838D839E834F8380EC90E0FC01C7
:10304000108281EC90E028E1FC01208382EC90E08A
:1030500026E0FC0120838F81813091F481EC90E0A7
:1030600021EC30E0F9012081206CFC0120838FE508
:1030700090E02FE530E0F90120812068FC012083F9
:103080006B817C818D819E810E94051EDC01CB01BC
:1030900020E030E040E851E4BC01CD010E94BC1EBC
:1030A000DC01CB019C01AD0160E876E988E19BE49D
:1030B0000E945D1DDC01CB0120E030E040E85FE3D1
:1030C000BC01CD010E94EB1CDC01CB0120E030E013
:1030D00040E05FE3BC01CD010E94EC1CDC01CB01B0
:1030E000BC01CD010E94D61DDC01CB019A838983EE
:1030F00085EC90E029813A81232F3327FC0120833E
:1031000084EC90E02981FC01208327960FB6F89487
:10311000DEBF0FBECDBFDF91CF9108951F920F92FA
:1031200000905F000F92112400905B000F922F938C
:103130003F938F939F93EF93FF93CF93DF93CDB7FD
:10314000DEB78091CB018823D1F08091CB018150F3
:103150008093CB0186EC90E02091CC01222F30E0CF
:1031600026573E4FF9012081FC0120838091CC013C
:103170008F5F8093CC01803411F41092CC01DF91E9
:10318000CF91FF91EF919F918F913F912F910F9050
:1031900000925B000F9000925F000F901F901895B7
:1031A000CF93DF931F92CDB7DEB7898381EC90E098
:1031B000FC0180818295869586958370882F90E0AA
:1031C00081709927892B99F100008091CB0180347F
:1031D000E1F3F8948091CB01882351F480EC90E0E6
:1031E000FC018081882F90E080729927892BC1F49F
:1031F0008091CA01882F90E086579E4F2981FC015B
:1032000020838091CA018F5F8093CA01803411F4BA
:103210001092CA018091CB018F5F8093CB0105C0D2
:1032200086EC90E02981FC012083789403C0898199
:103230000E94BF1A0F90DF91CF9108951F920F92B5
:1032400000905F000F92112400905B000F922F936B
:103250003F938F939F93EF93FF93CF93DF931F92AF
:10326000CDB7DEB780EC90E0FC0180818983898155
:10327000882F90E08C719927892BD1F480910D02D1
:10328000882F90E026EC30E0F901208183539E4F97
:10329000FC01208380910D028F5F80930D028034AA
:1032A00011F410920D0280910E028F5F80930E0236
:1032B0000F90DF91CF91FF91EF919F918F913F916F
:1032C0002F910F9000925B000F9000925F000F9083
:1032D0001F901895CF93DF931F92CDB7DEB781EC87
:1032E00090E0FC018081881F8827881F882F90E04C
:1032F00081709927892BE9F0000080910E028823C4
:10330000E1F380910F02882F90E083539E4FFC01E0
:103310008081898380910F028F5F80930F028034B8
:1033200011F410920F0280910E02815080930E02D0
:1033300013C0000080EC90E0FC018081881F88278A
:10334000881F882F90E081709927892B99F386EC4C
:1033500090E0FC018081898389810F90DF91CF917A
:103360000895CF93DF93CDB7DEB727970FB6F894C4
:10337000DEBF0FBECDBF6B837C838D839E834F8367
:1033800088EC90E0FC01108289EC90E028E1FC01DF
:1033900020838AEC90E026E0FC0120838F8181303D
:1033A00091F489EC90E029EC30E0F9012081206C67
:1033B000FC0120838FE590E02FE530E0F9012081CA
:1033C0002068FC0120836B817C818D819E810E941D
:1033D000051EDC01CB0120E030E040E851E4BC01F7
:1033E000CD010E94BC1EDC01CB019C01AD0160E857
:1033F00076E988E19BE40E945D1DDC01CB0120E0C1
:1034000030E040E85FE3BC01CD010E94EB1CDC0131
:10341000CB0120E030E040E05FE3BC01CD010E9441
:10342000EC1CDC01CB01BC01CD010E94D61DDC01EE
:10343000CB019A8389838DEC90E029813A81232FF7
:103440003327FC0120838CEC90E02981FC01208350
:1034500027960FB6F894DEBF0FBECDBFDF91CF9198
:1034600008951F920F9200905F000F921124009018
:103470005B000F922F933F938F939F93EF93FF9354
:10348000CF93DF93CDB7DEB7809151028823D1F07F
:10349000809151028150809351028EEC90E02091F6
:1034A0005202222F30E0205F3D4FF9012081FC01C4
:1034B0002083809152028F5F80935202803411F4F6
:1034C00010925202DF91CF91FF91EF919F918F91D6
:1034D0003F912F910F9000925B000F9000925F0040
:1034E0000F901F9018951F920F9200905F000F92FF
:1034F000112400905B000F922F933F938F939F9323
:10350000EF93FF93CF93DF931F92CDB7DEB788EC95
:1035100090E0FC01808189838981882F90E08C7103
:103520009927892BD1F480919302882F90E02EEC7B
:1035300030E0F90120818D5A9D4FFC01208380915C
:1035400093028F5F80939302803411F41092930260
:10355000809194028F5F809394020F90DF91CF91BE
:10356000FF91EF919F918F913F912F910F9000923A
:103570005B000F9000925F000F901F901895CF9303
:10358000DF931F92CDB7DEB78983000080EC90E017
:10359000FC018081882F90E080729927892BB1F3FC
:1035A00086EC90E02981FC0120830F90DF91CF9180
:1035B0000895CF93DF931F92CDB7DEB789830000C4
:1035C00088EC90E0FC018081882F90E08072992740
:1035D000892BB1F38EEC90E02981FC0120830F90C0
:1035E000DF91CF910895CF93DF931F92CDB7DEB7D0
:1035F000898389EC90E0FC0180818295869586958F
:103600008370882F90E081709927892B99F10000B1
:10361000809151028034E1F3F89480915102882323
:1036200051F488EC90E0FC018081882F90E080725A
:103630009927892BC1F480915002882F90E0805FF8
:103640009D4F2981FC012083809150028F5F8093E0
:103650005002803411F410925002809151028F5F19
:103660008093510205C08EEC90E02981FC012083FB
:10367000789403C089810E94D91A0F90DF91CF916D
:103680000895CF93DF931F92CDB7DEB789EC90E01A
:10369000FC018081881F8827881F882F90E0817017
:1036A0009927892BE9F00000809194028823E1F3A7
:1036B00080919502882F90E08D5A9D4FFC0180816A
:1036C0008983809195028F5F80939502803411F4F5
:1036D000109295028091940281508093940213C0BD
:1036E000000088EC90E0FC018081881F8827881FFB
:1036F000882F90E081709927892B99F38EEC90E0C8
:10370000FC018081898389810F90DF91CF91089599
:10371000CF93DF93CDB7DEB72B970FB6F894DEBF0C
:103720000FBECDBF19821A8281E08B831E821D825B
:1037300018861F821A861986CE0105960E9452139A
:103740008B81082E000C990B8130910521F0029796
:1037500009F43FC078C08A81898338C040E050E0D6
:103760008981282F30E06BE0629FC001639F900D3C
:103770001124815D9E4FDC01EC918981282F30E07E
:103780006BE0629FC001639F900D1124825D9E4F8C
:10379000DC017C918981282F30E06BE0629FC001C1
:1037A000639F900D1124895D9E4F9A014E2F672FC4
:1037B0000E9494128C838C81813009F40AC0898123
:1037C000882309F4FFCF89818F5F898389818823CA
:1037D00029F28A81898334C040E050E08981282F12
:1037E00030E06BE0629FC001639F900D1124865C06
:1037F0009E4FDC01EC918981282F30E06BE0629FC5
:10380000C001639F900D1124875C9E4FDC017C9169
:103810008981282F30E06BE0629FC001639F900D8B
:1038200011248E5C9E4F9A014E2F672F0E94941296
:103830008C838C81813009F406C089818F5F8983F4
:103840008981882349F27CCFCF93DF93CDB7DEB750
:103850002E970FB6F894DEBF0FBECDBF0E94CE16D6
:1038600080E090E0A8ECB2E489839A83AB83BC83C8
:1038700020E030E44CE155E469817A818B819C81C0
:103880000E94BC1EDC01CB018D839E83AF83B88771
:1038900020E030E040E85FE36D817E818F81988594
:1038A0000E94581D88232CF481E090E09A87898734
:1038B0003FC020E03FEF4FE757E46D817E818F816D
:1038C00098850E94B71E18164CF520E030E040E2C3
:1038D00051E469817A818B819C810E94BC1EDC014C
:1038E000CB01BC01CD010E94D61DDC01CB019A8722
:1038F00089870FC08AEF90E09C878B878B859C859A
:103900000197F1F79C878B8789859A8501979A871C
:10391000898789859A85892B69F714C06D817E8195
:103920008F8198850E94D61DDC01CB019A878987FB
:1039300089859A859E878D878D859E850197F1F76C
:103940009E878D870E94881B80E090E02E960FB6A0
:10395000F894DEBF0FBECDBFDF91CF910895A1E2F5
:103960001A2EAA1BBB1BFD010DC0AA1FBB1FEE1FF9
:10397000FF1FA217B307E407F50720F0A21BB30B44
:10398000E40BF50B661F771F881F991F1A9469F7C0
:1039900060957095809590959B01AC01BD01CF011C
:1039A00008950E94DC1CA59F900DB49F900DA49FCC
:1039B000800D911D11240895A29FB001B39FC001F5
:1039C000A39F700D811D1124911DB29F700D811D4B
:1039D0001124911D08955058BB27AA270E94031D4A
:1039E0000C947D1E0E946F1E38F00E94761E20F0FF
:1039F00039F49F3F19F426F40C946C1E0EF4E095F4
:103A0000E7FB0C94661EE92F0E948E1E58F3BA172E
:103A1000620773078407950720F079F4A6F50C94E4
:103A2000B01E0EF4E0950B2EBA2FA02D0B01B9019C
:103A300090010C01CA01A0011124FF27591B99F024
:103A4000593F50F4503E68F11A16F040A22F232F30
:103A5000342F4427585FF3CF469537952795A79580
:103A6000F0405395C9F77EF41F16BA0B620B730B27
:103A7000840BBAF09150A1F0FF0FBB1F661F771F98
:103A8000881FC2F70EC0BA0F621F731F841F48F44D
:103A9000879577956795B795F7959E3F08F0B0CFD6
:103AA0009395880F08F09927EE0F979587950895BD
:103AB0000E94421E08F481E008950E94711D0C943A
:103AC0007D1E0E94761E58F00E946F1E40F029F461
:103AD0005F3F29F00C94661E51110C94B11E0C949A
:103AE0006C1E0E948E1E68F39923B1F3552391F347
:103AF000951B550BBB27AA2762177307840738F05D
:103B00009F5F5F4F220F331F441FAA1FA9F335D0B9
:103B10000E2E3AF0E0E832D091505040E695001C6D
:103B2000CAF72BD0FE2F29D0660F771F881FBB1F27
:103B3000261737074807AB07B0E809F0BB0B802D05
:103B4000BF01FF2793585F4F3AF09E3F510578F031
:103B50000C94661E0C94B11E5F3FE4F3983ED4F3C0
:103B6000869577956795B795F7959F5FC9F7880F05
:103B7000911D9695879597F90895E1E0660F771F57
:103B8000881FBB1F621773078407BA0720F0621BE8
:103B9000730B840BBA0BEE1F88F7E09508950E9413
:103BA000D61D6894B1110C94B11E08950E94961E02
:103BB00088F09F5798F0B92F9927B751B0F0E1F0EE
:103BC000660F771F881F991F1AF0BA95C9F714C09E
:103BD000B13091F00E94B01EB1E008950C94B01E77
:103BE000672F782F8827B85F39F0B93FCCF38695D7
:103BF00077956795B395D9F73EF490958095709534
:103C000061957F4F8F4F9F4F0895E89409C097FBB0
:103C10003EF490958095709561957F4F8F4F9F4FA3
:103C20009923A9F0F92F96E9BB279395F6958795E7
:103C300077956795B795F111F8CFFAF4BB0F11F4AA
:103C400060FF1BC06F5F7F4F8F4F9F4F16C0882351
:103C500011F096E911C0772321F09EE8872F762F87
:103C600005C0662371F096E8862F70E060E02AF0C8
:103C70009A95660F771F881FDAF7880F96958795B4
:103C800097F90895990F0008550FAA0BE0E8FEEF89
:103C900016161706E807F907C0F012161306E40710
:103CA000F50798F0621B730B840B950B39F40A2609
:103CB00061F0232B242B252B21F408950A2609F4E7
:103CC000A140A6958FEF811D811D089597F99F67EB
:103CD00080E870E060E008959FEF80EC0895002494
:103CE0000A941616170618060906089500240A9461
:103CF00012161306140605060895092E0394000CE7
:103D000011F4882352F0BB0F40F4BF2B11F460FF75
:103D100004C06F5F7F4F8F4F9F4F089557FD90589E
:103D2000440F551F59F05F3F71F04795880F97FB7F
:103D3000991F61F09F3F79F0879508951216130639
:103D40001406551FF2CF4695F1DF08C01616170668
:103D50001806991FF1CF869571056105089408959D
:103D6000E894BB2766277727CB0197F908950E942F
:103D7000421E08F48FEF08950E94CF1E0C947D1E02
:103D80000E946F1E38F00E94761E20F0952311F0DD
:103D90000C94661E0C946C1E11240C94B11E0E948F
:103DA0008E1E70F3959FC1F3950F50E0551F629FD3
:103DB000F001729FBB27F00DB11D639FAA27F00D84
:103DC000B11DAA1F649F6627B00DA11D661F829FAB
:103DD0002227B00DA11D621F739FB00DA11D621F90
:103DE000839FA00D611D221F749F3327A00D611DAD
:103DF000231F849F600D211D822F762F6A2F11248F
:103E00009F5750409AF0F1F088234AF0EE0FFF1FC1
:103E1000BB1F661F771F881F91505040A9F79E3F18
:103E2000510580F00C94661E0C94B11E5F3FE4F3C4
:103E3000983ED4F3869577956795B795F795E7956E
:103E40009F5FC1F7FE2B880F911D9695879597F977
:103E500008950F931F93CF93DF93869F8001879FD1
:103E6000100D969F100D1124C8010E94451FEC01F2
:103E7000009729F0A80160E070E00E947220CE0156
:103E8000DF91CF911F910F910895CF93DF938230EF
:103E9000910510F482E090E0E0919C02F0919D0287
:103EA00020E030E0C0E0D0E0309711F14081518156
:103EB00048175907C0F04817590761F48281938168
:103EC000209719F09B838A832BC090939D02809347
:103ED0009C0226C02115310519F04217530718F42A
:103EE0009A01BE01DF01EF010280F381E02DDCCFFA
:103EF0002115310509F1281B390B2430310590F4C7
:103F000012968D919C9113976115710521F0FB011B
:103F10009383828304C090939D0280939C02FD0151
:103F2000329644C0FD01E20FF31F8193919322501A
:103F300031092D933C933AC020919A0230919B0213
:103F4000232B41F4209102013091030130939B0215
:103F500020939A0220910001309101012115310531
:103F600041F42DB73EB74091040150910501241B47
:103F7000350BE0919A02F0919B02E217F307A0F44F
:103F80002E1B3F0B2817390778F0AC014E5F5F4FAF
:103F90002417350748F04E0F5F1F50939B02409344
:103FA0009A028193919302C0E0E0F0E0CF01DF91AB
:103FB000CF9108950F931F93CF93DF93009709F448
:103FC0008CC0FC0132971382128200919C021091E6
:103FD0009D020115110581F420813181820F931F0B
:103FE00020919A0230919B022817390779F5F093B6
:103FF0009B02E0939A0271C0D80140E050E0AE17F6
:10400000BF0750F412962D913C911397AD012115E5
:10401000310509F1D901F3CF9D01DA013383228300
:1040200060817181860F971F8217930769F4EC01F5
:1040300028813981260F371F2E5F3F4F3183208320
:104040008A819B8193838283452B29F4F0939D027F
:10405000E0939C0242C01396FC93EE931297ED01FD
:10406000499159919E01240F351FE217F30771F40E
:1040700080819181840F951F029611969C938E9357
:104080008281938113969C938E931297E0E0F0E0E7
:10409000D80112968D919C911397009719F0F80111
:1040A0008C01F6CF8D919C9198012E5F3F4F820F2E
:1040B000931F20919A0230919B022817390769F4C7
:1040C000309729F410929D0210929C0202C0138234
:1040D000128210939B0200939A02DF91CF911F915D
:1040E0000F910895DC0101C06D9341505040E0F7FD
:0640F0000895F894FFCFD3
:1040F60000009E02200006010601000000000000EC
:1041060049640000000000001E0100006400000079
:104116000000001E010000900100000000001E01CA
:0E4126000000640000000000001E0100000008
:00000001FF
